:020000040800F2
:1000000078060020190200082102000823020008D7
:10001000250200082702000829020008000000004D
:100020000000000000000000000000002B0200089B
:100030002D020008000000002F0200087D240008A7
:1000400033020008330200083302000833020008BC
:100050003302000833020008330200088915000843
:10006000330200083302000833020008330200089C
:10007000330200083302000833020008330200088C
:10008000330200083302000833020008330200087C
:10009000330200083302000833020008330200086C
:1000A000330200083302000833020008330200085C
:1000B000F524000833020008330200083302000868
:1000C000330200083302000833020008ED1B000869
:1000D0003302000815250008330200083302000827
:1000E00033020008330200083302000800F002F86F
:1000F00000F082F80AA090E8000C82448344AAF140
:100100000107DA4501D100F077F8AFF2090EBAE83D
:100110000F0013F0010F18BFFB1A43F0010318473B
:10012000542E0000642E0000002300240025002629
:10013000103A28BF78C1FBD8520728BF30C148BF4A
:100140000B6070476E2900F06181702900F0A38276
:10015000662902F07D86652902F07A86672902F019
:100160007786612902F0768603681B0A28BF41F072
:100170008001692900F00E81642900F00B81752946
:1001800000F008816F2900F03182782900F06F8239
:10019000E92900F0CB81E42900F0C881F52900F0BD
:1001A000C581EF2900F02E82F82900F06E820368E5
:1001B000DB0928BF41F08001632900F0978773298C
:1001C00000F09C87E32900F0A787F32900F0AC87B3
:1001D000002070471FB500F0FDFF04000020002143
:1001E00002F020FE401C60600020002102F004FEAE
:1001F000E0601FBD10B510BD00F0BEFF1146FFF757
:10020000E9FF02F00FFA01F09BF803B4FFF7F2FFE9
:1002100003BC01F0E3F800000948804709480047A3
:10022000FEE7FEE7FEE7FEE7FEE7FEE7FEE7FEE7A6
:10023000FEE7FEE704480549054A064B7047000003
:100240008D240008ED0000087800002078060020CA
:1002500078020020780200200FB41CB5084B06AAD3
:100260007B4469460090059800F0E9F804460020B8
:10027000694600F0F7F820461CBC5DF814FB00004E
:10028000010200004FF000020429C0F0128010F0BB
:10029000030C00F0D182CCF1040CBCF1020F18BFAA
:1002A00000F8012BA8BF20F8022BA1EB0C0100F0F5
:1002B000C3BA5FEAC17C24BF00F8012B00F8012B10
:1002C00048BF00F8012B704770477047704770B502
:1002D000044685690068C10601D5302600E0202665
:1002E000C00707D070BDD4E9012130469047206A8D
:1002F000401C20626D1EF6D570BD70B50446856940
:100300000078C00707D170BDD4E9012120209047B3
:10031000206A401C20626D1EF6D570BD09684A0532
:1003200001D540B27047C905FCD500B270470968D5
:100330004A0501D5C0B27047C905FCD580B27047E7
:1003400070B50C460546012A05D02878800600D5F0
:10035000EA69002302E0012305E05B1C934202D21C
:10036000E05C0028F9D1A869E618C01AA861286ADB
:10037000184428622846FFF7AAFF04E0D5E90121C6
:1003800014F8010B9047B442F8D32846FFF7B5FFA5
:1003900070BD00002DE9F041064600241068752963
:1003A000314616A510D0FFF7B9FF002802DA404207
:1003B00013A507E031688A0701D512A502E04907B5
:1003C00004D511A5012401E0FFF7B1FF00210A22A5
:1003D00006F1240709E0B0FBF2FCB0FBF2F302FBEC
:1003E0001C00303078541846491C0028F3D12346AD
:1003F0002A463046BDE8F04100F088BA000000000F
:100400002D0000002B000000200000001168026891
:10041000006A530501D508700AE0D30501D50880AC
:1004200006E0130603D5C217C1E9000200E0086028
:100430000120704701694A1C02610878704700B5C5
:100440008FB0CDE901310021059105497944CDE90D
:1004500003101146684600F029F90FB000BD0000F6
:10046000E5FFFFFF0A6802F8010B0A607047000011
:100470002DE9FF5F15468A460446DFF8AC80F84454
:100480000027D8E900103E46CDE9001010E03AF808
:1004900016106A4602A800F04BFE411C07D02178D6
:1004A000890603D5E269391891420DD80744761CB4
:1004B0002078800602D5E069B84205DDAE42E6DB71
:1004C0003AF816000028E2D1A069C01BA0612046BE
:1004D000FFF7FDFED8E90010CDE90010002017E07D
:1004E0003AF818106A4602A800F022FEB0F1FF3F69
:1004F00081460BD000250DF1080B05E0D4E9012160
:100500001BF8050090476D1C4D45F7D308F101001D
:10051000B0428046E4DB206A384420622046FFF780
:10052000ECFEBDE8FF9F0000D62900002DE9F04158
:100530008046D21D22F007020025D2E90002F529EB
:1005400015A614D0011E72F1000106DA0023D0EBCB
:10055000030063EB020211A608E0D8F800108B0735
:1005600001D50FA602E0490701D50EA601251146C7
:10057000002408F1240704E000F083F930323A55F2
:10058000641C50EA0102F7D12B4632462146404610
:10059000BDE8F04100F0BAB9000000002D000000F5
:1005A0002B0000002000000030B4002100F12404E2
:1005B00008E002F00705D208303542EA4372DB0852
:1005C0006554491C52EA0305F3D10468002310A2C4
:1005D000250708D504F020040C4304D0C469012386
:1005E0000CA2641EC46130BC00F090B910B5044682
:1005F00021461068FFF79BFE02462046BDE81040EA
:100600000023D1E7D21D22F00701D1E90023CBE777
:100610000000000030000000F0B40D46018809051C
:1006200002D5214C7C4402E01F4C7C440E34002156
:1006300000F1240608E002F00F071209E75D42EA24
:1006400003721B097754491C52EA0307F3D102785D
:100650000023120704D5702D06D009B102231134EE
:100660002246F0BC00F052B901231034F8E770B50F
:1006700004460D4621461068FFF759FE02462946FA
:100680002046BDE870400023C6E7D21D22F00703D4
:10069000D3E90023C0E70368126843F02003036036
:1006A0000823C3610023B7E7382800002DE9F05F75
:1006B000894604464FF0000ADFF874B1FB44C0F8E5
:1006C00020A02046E1688847002874D0252806D05D
:1006D000D4E901219047206A401C2062F1E70026FE
:1006E0005F462046E16888472028054607DB312D14
:1006F00005D2781910F8200C08B10643F1E7B007CD
:1007000001D526F00406C4F81CA00027C4F818A0E0
:100710002A2D09D0284602F067FB38B304EB87087E
:10072000303DC8F8185019E059F8041B204604EB76
:1007300087029161E1688847012F054618D1E06979
:10074000002820DA26F020061DE0D8F8180000EB7B
:10075000800005EB40003038C8F818002046E168FA
:100760008847054602F040FB0028EED1012F0AD051
:100770002E2D08D12046E16888477F1C0546022FB0
:1007800046F02006C4DBA069002803DA404246F0A8
:100790000106A061F00701D026F010066C2D0BD0E9
:1007A000682D09D04C2D39D06A2D35D0742D35D017
:1007B0007A2D33D016E038E0E1682F46204688478E
:1007C000B842054609D16C2F26D04FF48060E1680D
:1007D000064320468847054604E06C2F1AD04FF4A4
:1007E000807006430DB3A5F14100192802D82035C9
:1007F00046F400664A462946204626604E46FFF7E4
:10080000A1FC80B101280BD0F61D26F0070000F1F5
:10081000080956E74020E4E78020D8E70020D6E723
:1008200006F104094DE7284652E7206ABDE8F09F2B
:10083000C82700004FF0000200B5134694469646C4
:10084000203922BFA0E80C50A0E80C50B1F12001E3
:10085000BFF4F7AF090728BFA0E80C5048BF0CC091
:100860005DF804EB890028BF40F8042B08BF7047EF
:1008700048BF20F8022B11F0804F18BF00F8012B61
:10088000704730B5B0F10A0271F100034FEA900EE3
:100890004EEA817EB0EB0E0061EB91014FEA101E33
:1008A0004EEA017E10EB0E0041EB11114FEA102EC3
:1008B0004EEA016E10EB0E0041EB11214FEA104E93
:1008C0004EEA014E10EB0E0041EB1141401841F190
:1008D00000014FEAD00040EA41704FEAD1014FEAEF
:1008E000810444EA907410EB800544EB01046D1917
:1008F00044EB0404521BA3414FF0000348BF0A32EB
:1009000000D530BD401C41F1000130BD2DE9F0475C
:100910000D4699469246044600F12408016888066F
:1009200004D5E06921F01001216000E00120A84217
:1009300001DD471B00E00027A1697A1902EB0900DD
:10094000081AA0612078C00602D42046FFF7BFFC39
:10095000002608E0D4E901211AF806009047206A31
:10096000401C761C20624E45F4DB2078C0060AD578
:100970002046FFF7ACFC06E0D4E901213020904787
:10098000206A401C2062381EA7F10107F4DC07E052
:10099000D4E9012118F805009047206A401C206224
:1009A000281EA5F10105F3DC2046FFF7A6FC207800
:1009B000000602D50220BDE8F0870120FBE72DE903
:1009C000FF4F0C461E464FF0FF378BB0D2E90001B7
:1009D000DDF860800A908A46C1F30A5505B93D46A4
:1009E000002108464FF00000BAF1000F00F440006B
:1009F00005DA00EB80004FF4400101EA50004FEAB5
:100A00009059B9F1010F00DDB9460A9850EA4A0041
:100A10000ED044F61050A5F2FF3545432F14B8F11F
:100A2000000F1ED07542291E1EDDC9F100021CE018
:100A3000B8F1010F4FF0000001D0302103E0F24384
:100A400005E02154401CB042FBDB3046002200216F
:100A500021540B99C1F80880C1E900200FB0BDE80E
:100A6000F08FBD1B6D1CDEE74A4600DA694206A81E
:100A700000F0F4FB06AB93E8070003AB83E8070044
:100A800050460A9901F0D3FD8DE80700A0F500500B
:100A90001F3800900398002D0ADD42F21F014A46DC
:100AA0000844002303A90390684602F03DF809E0DA
:100AB000A0F500504A461F38002303A9039068465A
:100AC00002F047F88DE807000004000C03D04FF057
:100AD000FF30410800E01046B8F1000F03D00022BB
:100AE000009215461EE0751E05D4FFF7CAFE30328F
:100AF00062556D1EF9D5B3460122084302D000228B
:100B00007F1C04E02078302801D100227F1E002ABB
:100B1000099784D01DE0112D07DAFFF7B2FE3032BD
:100B200062556D1C50EA0102F5D1084302D00098CD
:100B3000C8B10EE00021681E05E0235C625C6354CE
:100B40002254401E491C8142F7DBAB46A81B401EC5
:100B50000990002004F80B000B98099AC0F808804F
:100B6000C0E9002B7AE711264FF0000857E72DE97E
:100B7000F04F88460446D21D22F0070191B0D1E91A
:100B80000001CDE90A0102F01BF902460B98C00FE3
:100B900001D02D2007E02068810701D52B2002E03D
:100BA000202101EAC000032A099001D0072A05DBB1
:100BB00003464146204600F011FB0BE120788006F9
:100BC00001D5E06900E00620B8F1650F814606D046
:100BD000B8F1660F18D0B8F1670F70D131E000207E
:100BE000B9F1110F009001DB112301E009F10103BC
:100BF0000AAA01A90CA8FFF7E2FEDDE90C700026A5
:100C000009F10105834647E001204B4600904FF073
:100C100000470AAA01A90CA8FFF7D1FEDDE90DB033
:100C20000C995D46002610B909F101000D18B9EBC9
:100C3000050003D4C0F1FF3609F10105A5EB090059
:100C40002BE0B9F1010F01DA4FF001090020B9F1F1
:100C5000110F0090484601DD112300E003460AAA67
:100C600001A90CA8FFF7ABFEDDE90C704D4600268C
:100C70008346207800070AD4AB4500DA5D4601A818
:100C8000012D04DD411911F8011C302907D04F4511
:100C900002DA17F1040F04DA012082460FE06D1E1C
:100CA000EEE7002F02DCED1B3E4403E0781CA84277
:100CB00000DD7D1CB81B00F1010A4FF000472078D1
:100CC000000703D4AA4501DB4FF0FF3A0021B7F13A
:100CD000004F0DF143088DF8431024D002202B2340
:100CE000002F01DA7F422D230A21021EA0F101000C
:100CF00000DC5FB197FBF1FC97FBF1F201FB1C7C80
:100D000017460CF1300C08F801CDEEE7A8F1010010
:100D100003702188090501D5452100E06521A0F176
:100D2000010800F8011C09980FA9A1EB0807FF1D95
:100D300000B10120411901EBEA70A1693844081A99
:100D4000401EA0612078C00602D42046FFF7BFFAFB
:100D5000099828B1D4E901219047206A401C2062FB
:100D60002078C00622D52046FFF7B1FA1EE0002EFB
:100D700004DBB34502DD01A8805D00E03020D4E94A
:100D800001219047206A401C2062761CAAF10100D4
:100D90005FEA000A0AD100F01DFAC0680168405CF1
:100DA000D4E901219047206A401C2062281EA5F149
:100DB0000105DCDC07E0D4E9012118F8010B9047BC
:100DC000206A401C2062381EA7F10107F3DC204690
:100DD000FFF793FA032011B041E600002DE9F04F30
:100DE00004460D46D21D22F0070089B0D0E90097D5
:100DF0004846394601F0E4FF0246F80F01D02D23A2
:100E000007E02068810701D52B2302E0202101EAB9
:100E1000C0038DF820300BB1012000E00020032A30
:100E2000824601D0072A04DB2946204600F0D6F985
:100E30003FE12078800601D40D2500E0E569C7F385
:100E40000A560D2D49DA00214FEA175B08464FF08C
:100E50000000002F00F4400007DA00EB80004FF4A0
:100E6000400100EBD07001EA60008115012901DD2D
:100E70004FF0FF3100224FEA850CBCF1180F06D36A
:100E80001346ACF118004FF08052C24003E04FF41B
:100E9000801323FA0CF30CF10C0CBCF1200F04D3DB
:100EA000ACF1200C09FA0CF001E007FA0CF0002973
:100EB0004FF0004801DD18B90FE00ED140450CD3CA
:100EC00019EB02095F4121B9404502D19F4329EA4C
:100ED0000209BBEB175F00D0761C2088000502D505
:100EE0007B48784402E07A487844193808AA3023CD
:100EF00002F80A30037C0AF10101002E0AF1020A0D
:100F000053546A4602DC4FF0300101E04FF03101EA
:100F10004FF001088DF8001002D0A6F2FF3603E072
:100F200059EA470100D06B4E002D02DC21780907F9
:100F300004D54FF002082E218DF80110C44600217F
:100F40000BE0C7F303433F01C35C491C6D1E02F86D
:100F50000830052908F1010801DA002DF1DC002133
:100F60000CE000EB1973491C1B786D1E082902F870
:100F700008304FEA091908F1010801DA002DF0DC08
:100F800021688B0602D516E0A8F10108E04505DDD1
:100F900002EB080313F8013C302BF5D0B8F1000F39
:100FA00009DD02EB080313F8013C2E2B03D10907DE
:100FB00001D4A8F10108002D05DD3E2102F808103A
:100FC0006D1E08F10108407C002E02F8080008F1AF
:100FD000010804DA2D20764202F8080002E02B20F6
:100FE00002F808000A214FF47A70864208F10108DD
:100FF0000BDB96FBF0F3303302F8083096FBF0F38E
:1010000008F1010800FB136601E0642E0CDB64208C
:1010100096FBF0F3303302F8083096FBF0F308F15A
:10102000010800FB136601E00A2E06DB96FBF1F0D7
:10103000303002F8080008F1010896FBF1F001FBDE
:101040001060303002F80800A16908F1010808EBCF
:10105000050202EB0A00081AA0612078C00602D43B
:101060002046FFF734F9216A08AE01EB0A0020623E
:1010700004E0D4E9012116F8010B9047BAF1010A06
:10108000F7D22078C00602D52046FFF720F96E4639
:1010900009E016F8010B3E280FD0D4E90121904752
:1010A000206A401C2062B8F10108F2D22046FFF706
:1010B00024F909B00320BDE8F08F206A284420629B
:1010C00003E0D4E90121302090476D1EEBD3F8E70F
:1010D000C61F000002FCFFFF10B5436913B1AFF358
:1010E000008001E0FFF72CF9012010BD127800F11B
:1010F00024010A7000224A700122EDE711684FF0C6
:10110000FF32E9E710B5436913B1AFF3008001E0A6
:10111000FFF7AEF9012010BD128800F1240182848E
:101120000022C2840122EDE711684FF0FF32E9E7A7
:101130002DE9F04116460C46054600F043F80368D9
:1011400093F80101012807D0FF2C12D8185D80B157
:1011500001202C70BDE8F081D3F80701324621460A
:1011600003F20713C7182846BC46BDE8F041002328
:1011700060474FF0FF30EDE7754600F0EBF8AE4604
:1011800005006946534620F00700854618B020B593
:10119000FFF750F8BDE820404FF000064FF0000781
:1011A0004FF000084FF0000BAC46ACE8C009ACE8CB
:1011B000C009ACE8C009ACE8C00921F007018D46C0
:1011C0007047000010B500F005F8001D10BD00BF0D
:1011D000551C000000487047200000202DE9F04118
:1011E0001F46044603260168072A01F4006004DB59
:1011F00008B116A505E016A503E008B115A500E0A5
:1012000015A521F010002060A069C01EA0610FB1DB
:10121000401EA0612046FFF75AF84FB1D4E90121E2
:1012200038469047206A401C2062C01C206206E0BD
:10123000206AFAE7D4E9012115F8010B9047761EE0
:10124000F8D22046FFF759F8BDE8F0814E414E0034
:101250006E616E00494E4600696E66002DE9F047EA
:10126000814616468AB0354878440DC88DE80D0091
:1012700032487844801C03AC0DC884E80D0041F668
:101280009B300844372190FBF1F290FBF1F5A5F17A
:10129000800501FB12041B3C02D56442012000E0E2
:1012A0000020DFF898A080460027FA44AAF1BE0A81
:1012B0000EE0E0070AD03246684607EB47010123FB
:1012C0000AEB810101F045FC8DE8070064107F1CEA
:1012D000002CEED1194F7F44AE3F19E0E80715D03E
:1012E00007EB04100DF1180A90E80E008AE80E00D2
:1012F000C068F04201D1981908903246012306A92E
:1013000003A801F026FC03AB83E807006D10641C02
:10131000002DE3D14FF0010332466946B8F1000FCA
:1013200003A802D001F000FC01E001F012FCC9E9C1
:101330000001C9F808200AB0BDE8F087D01C000001
:1013400010B50446AFF300802046BDE81040FEF71C
:101350005CBF000000487047000000204FF0013CD7
:1013600050F8042B51F8043B9A4221D1A2EB0C0314
:10137000934313EACC1317D150F8042B51F8043BD4
:101380009A4215D1A2EB0C03934313EACC130BD171
:1013900050F8042B51F8043B9A4209D1A2EB0C03FC
:1013A000934313EACC13DBD04FF00000704700BF2B
:1013B000D01A01BAB1FA81F101F0180122FA01F054
:1013C000CB40DBB2C0B2C01AC1F120012CFA01F34C
:1013D000D11A914311EAC311E6D17047014918208F
:1013E000ABBEFEE7260002007047000081B08DF81A
:1013F00003009DF80300010901EB810100F00F00DB
:1014000000EB4100C0B201B07047000081B08DF820
:1014100003009DF80300012809D1FFE741F21801FC
:10142000C4F20201086840F00100086008E041F2DF
:101430001801C4F20201086820F001000860FFE70B
:1014400001B0704780B584B0039040F26400C2F2EE
:10145000000000786A46002111600DF105020723A3
:1014600000F096F99DF80800FFF7C0FF0399087097
:101470009DF80900FFF7BAFF039948709DF80A002C
:10148000FFF7B4FF039988709DF80B00FFF7AEFFDC
:101490000399C8709DF80700FFF7A8FF039908712A
:1014A0009DF80600FFF7A2FF039948719DF805001B
:1014B000FFF79CFF0399887104B080BD81B08DF85F
:1014C00003009DF8030040F26401C2F200010870BD
:1014D00001B07047B0B594B000F06EFA01F06AF850
:1014E00000F0E8FA012000F0CFF8D020FFF7E6FF87
:1014F0000DF11E003221FEF7C5FEFFE740F2670046
:10150000C2F200000590FFF79DFF05990A784B781D
:10151000887891F803C091F804E04C798D79694698
:101520000D61CC60C1F808E0C1F804C0086042F663
:101530005471C0F600010DF11E000690FEF78CFEFE
:101540000698322101F002F84FF47A7000F002F8A8
:10155000D4E7000082B0019001984FF47A714843BB
:101560000090FFE740F26000C2F2000000680099BE
:10157000884201D8FFE7F5E740F26001C2F20001BE
:101580000020086002B0704780B540F21440C4F2F9
:10159000010000688007002821D5FFE7072000F040
:1015A000CBFA40F21441C4F20101086840F0020095
:1015B000086040F27400C2F20000007838B9FFE71A
:1015C00040F27401C2F200010120087006E040F20E
:1015D0007401C2F2000100200870FFE7FFE780BD40
:1015E00081B08DF803009DF80300012809D1FFE7C1
:1015F00041F21801C4F20201086840F004000860DA
:1016000008E041F21801C4F20201086820F0040069
:101610000860FFE701B0704781B08DF803009DF8C6
:101620000300012809D1FFE741F21801C4F20201C9
:10163000086840F00800086008E041F21801C4F2B0
:101640000201086820F008000860FFE701B0704759
:1016500081B08DF803009DF80300012809D1FFE750
:1016600041F21C01C4F20201086840F40010086055
:1016700008E041F21C01C4F20201086820F40010E5
:101680000860FFE701B0704780B584B08DF80F00A7
:10169000002000900290019000F008F90120FFF76F
:1016A000D7FF0098029941F400410291029A45F255
:1016B0000041C4F200010A6002900298086001989B
:1016C00040F024000190019845F20441C4F2000169
:1016D00008609DF80F0088B9FFE745F21C41C4F28D
:1016E0000001086820F400400860B420086045F25A
:1016F0002041C4F200012520086010E045F21C41A1
:10170000C4F20001086840F4004008601E20086030
:1017100045F22041C4F200010B200860FFE7029867
:1017200040F001000290029845F20041C4F200012D
:10173000086004B080BD000081B08DF803009DF802
:10174000030048B9FFE745F20041C4F20001086810
:1017500040F48060086008E045F20041C4F20001F6
:10176000086820F480600860FFE7FFE745F2144056
:10177000C4F2000000684006002801D4FFE7F5E746
:1017800045F21040C4F200000068C0B201B07047DA
:1017900080B584B0844606988DF80FC08DF80E1081
:1017A00002928DF807308DF80600002000908DF829
:1017B000050000F099F800999DF80F0000F032F84C
:1017C0009DF80E0000F0D6F800F0C0F800F08CF89C
:1017D0009DF80F00012100F025F800988DF8050014
:1017E000FFE79DF805009DF80710884210DAFFE733
:1017F0009DF80600FFF7A0FF0299087002980130DB
:101800000290FFE79DF8050001308DF80500E8E73C
:101810000120FFF791FF8DF8050000F097F804B064
:1018200080BD000083B002908DF80710002000906A
:101830009DF80700B0B9FFE7029820F00100029080
:10184000029845F21041C4F200010860FFE745F23A
:101850001440C4F2000000688007002801D4FFE7AC
:10186000F5E715E0029840F001000290029845F279
:101870001041C4F200010860FFE745F21440C4F2D1
:10188000000000688007002801D4FFE7F5E7FFE7C4
:1018900045F21440C4F200000068009045F2184080
:1018A000C4F200000068009003B0704780B582B0B9
:1018B00001200090FFF7B0FE0098FFF7A7FD009809
:1018C00006210322019200F0E1FB0098019A072112
:1018D00000F0DCFB0421C4F20101086820F00200E2
:1018E000086002B080BD000081B045F20041C4F242
:1018F0000001086840F480700860FFE745F214407A
:10190000C4F2000001680120C9070090B1B1FFE7EF
:1019100045F21840C4F2000001680120C907009098
:1019200061B1FFE745F21840C4F20000006800F022
:101930000201012080EA51000090FFE70098C007F3
:1019400008B1FFE7DAE701B07047000045F2004157
:10195000C4F20001086840F400700860FFE745F237
:101960001440C4F200000068C006002801D5FFE75B
:10197000F5E7704781B08DF80300FFE745F21440AA
:10198000C4F2000000680006002801D4FFE7F5E774
:101990009DF8030045F21041C4F200010860FFE722
:1019A00045F21440C4F2000000684007002801D44A
:1019B000FFE7F5E701B0704781B041F20401C4F2DE
:1019C0000201086820F00300086041F21401C4F22B
:1019D0000201086820F48050086041F20001C4F25E
:1019E0000201086820F080700860086840F48030C8
:1019F0000860FFE741F20000C4F2020000688003C3
:101A0000002801D4FFE7F5E741F22C01C4F20201FE
:101A1000086820F480300860086820F00F00086033
:101A200041F20401C4F202010091086840F48030E0
:101A30000860086820F470100860086840F4E0103E
:101A40000860086820F480600860086840F48050EE
:101A50000860086820F400500860086820F0F00072
:101A60000860086840F00100086041F20002C4F21A
:101A70000202106820F001001060106840F08070D1
:101A80001060086820F070600860086820F00100AD
:101A90000860086840F002000860FFE741F20400B7
:101AA000C4F2020000680007002801D4FFE7F5E750
:101AB00001B0704780B582B00020019041F21C0255
:101AC000C4F20202116841F0010111602821C4F240
:101AD000000108602C22C4F2000248211160242178
:101AE000C4F2000108600C21C4F20001086840F053
:101AF000010008601021C4F20001086820F0010014
:101B000008601C20009000F017F8009800F02EF8F4
:101B1000019820F010000190019840F00100019020
:101B200001984FF0804108601421C4F200010120A7
:101B3000086002B080BD000081B08DF803009DF9FF
:101B4000031001EBD16020F01F028A1A012101FA73
:101B500002F342114EF28021CEF2000151F8220030
:101B6000184341F8220001B07047000081B08DF8A1
:101B700003009DF9031001EBD16020F01F028A1AC7
:101B8000012101FA02F342114EF20011CEF20001DE
:101B900051F82200184341F8220001B070470000BC
:101BA00081B08DF803008DF802109DF802009DF9B8
:101BB000032002EB927121F00301521AD200043289
:101BC00000FA02F34EF20042CEF2000288581843A7
:101BD000885001B07047000040F61001C4F20101C6
:101BE000086840F0100008607047000080B582B0BF
:101BF00043F20C00C4F20100006840F26601C2F238
:101C0000000101910870FFF7E7FF0198012100F042
:101C10009DFC02B080BD000082B001908DF80310E1
:101C20008DF802208DF801309DF80310032000FA92
:101C300001F3019A1168994311609DF8021000FAAE
:101C400001F201990868904308609DF8010001289D
:101C50000AD1FFE79DF80210012000FA01F2019974
:101C600008681043086010E09DF8010002280AD1BE
:101C7000FFE79DF80210022000FA01F201990868BE
:101C80001043086000E0FFE7FFE702B07047000084
:101C900082B001908DF803108DF802208DF801308C
:101CA0009DF80310032000FA01F3019A116819430B
:101CB00011609DF8021000FA01F201990868904342
:101CC00008609DF8010001280AD1FFE79DF8021085
:101CD000012000FA01F2019908681043086020E031
:101CE0009DF8010002280AD1FFE79DF802100220AA
:101CF00000FA01F2019908681043086010E09DF8AD
:101D0000010003280AD1FFE79DF80210032000FA22
:101D100001F2019908681043086000E0FFE7FFE75F
:101D2000FFE702B07047000080B582B08DF8070071
:101D30008DF806108DF805208DF804309DF806000A
:101D4000072800F3CF80FFE79DF8060080008DF89C
:101D500003009DF8030002308DF802009DF8070093
:101D6000B8B9FFE79DF803109DF802209DF80530F3
:101D700040F60000C4F20100FFF74EFF9DF8061088
:101D80009DF8042040F60C00C4F2010000F0A2FA15
:101D9000A7E09DF80700012817D1FFE79DF8031081
:101DA0009DF802209DF8053040F60040C4F2010085
:101DB000FFF732FF9DF806109DF8042040F60C4016
:101DC000C4F2010000F086FA8AE09DF807000228BC
:101DD00017D1FFE79DF803109DF802209DF805300C
:101DE00041F20000C4F20100FFF716FF9DF8061053
:101DF0009DF8042041F20C00C4F2010000F06AFAE0
:101E00006DE09DF80700032817D1FFE79DF8031048
:101E10009DF802209DF8053041F20040C4F2010017
:101E2000FFF7FAFE9DF806109DF8042041F20C40E1
:101E3000C4F2010000F04EFA50E09DF807000428BB
:101E400017D1FFE79DF803109DF802209DF805309B
:101E500041F60000C4F20100FFF7DEFE9DF8061017
:101E60009DF8042041F60C00C4F2010000F032FAA3
:101E700033E09DF80700052817D1FFE79DF8031010
:101E80009DF802209DF8053041F60040C4F20100A3
:101E9000FFF7C2FE9DF806109DF8042041F60C40A5
:101EA000C4F2010000F016FA16E09DF803109DF848
:101EB00002209DF8053042F20000C4F20100FFF755
:101EC000ABFE9DF806109DF8042042F20C00C4F20F
:101ED000010000F0FFF9FFE7FFE7FFE7FFE7FFE79B
:101EE000FFE7D0E09DF806106FF01F0000EB8100C7
:101EF0008DF801009DF8010002308DF800009DF87A
:101F00000700B8B9FFE79DF801109DF800209DF883
:101F1000053040F60400C4F20100FFF77DFE9DF895
:101F200006109DF8042040F60C00C4F2010000F0F9
:101F3000D1F9A7E09DF80700012817D1FFE79DF828
:101F400001109DF800209DF8053040F60440C4F2D1
:101F50000100FFF761FE9DF806109DF8042040F691
:101F60000C40C4F2010000F0B5F98AE09DF80700CA
:101F7000022817D1FFE79DF801109DF800209DF879
:101F8000053041F20400C4F20100FFF745FE9DF860
:101F900006109DF8042041F20C00C4F2010000F08C
:101FA00099F96DE09DF80700032817D1FFE79DF828
:101FB00001109DF800209DF8053041F20440C4F264
:101FC0000100FFF729FE9DF806109DF8042041F25C
:101FD0000C40C4F2010000F07DF950E09DF80700CC
:101FE000042817D1FFE79DF801109DF800209DF807
:101FF000053041F60400C4F20100FFF70DFE9DF824
:1020000006109DF8042041F60C00C4F2010000F017
:1020100061F933E09DF80700052817D1FFE79DF827
:1020200001109DF800209DF8053041F60440C4F2EF
:102030000100FFF7F1FD9DF806109DF8042041F620
:102040000C40C4F2010000F045F916E09DF80110C3
:102050009DF800209DF8053042F20400C4F2010012
:10206000FFF7DAFD9DF806109DF8042042F20C00FF
:10207000C4F2010000F02EF9FFE7FFE7FFE7FFE7FA
:10208000FFE7FFE7FFE702B080BD000080B582B048
:102090008DF807008DF806108DF805209DF80600D4
:1020A000072800F38980FFE79DF8060080008DF87F
:1020B00004009DF8040002308DF803009DF807002D
:1020C00068B9FFE79DF804109DF803209DF80530DE
:1020D00040F60000C4F20100FFF7DAFD6BE09DF866
:1020E000070001280DD1FFE79DF804109DF803209B
:1020F0009DF8053040F60040C4F20100FFF7C8FD2E
:1021000058E09DF8070002280DD1FFE79DF8041064
:102110009DF803209DF8053041F20000C4F2010053
:10212000FFF7B6FD45E09DF8070003280DD1FFE756
:102130009DF804109DF803209DF8053041F2004001
:10214000C4F20100FFF7A4FD32E09DF80700042867
:102150000DD1FFE79DF804109DF803209DF8053090
:1021600041F60000C4F20100FFF792FD1FE09DF868
:10217000070005280DD1FFE79DF804109DF8032006
:102180009DF8053041F60040C4F20100FFF780FDE4
:102190000CE09DF804109DF803209DF8053042F2F4
:1021A0000000C4F20100FFF773FDFFE7FFE7FFE760
:1021B000FFE7FFE7FFE78AE09DF806106FF01F00DA
:1021C00000EB81008DF802009DF8020002308DF8CE
:1021D00001009DF8070068B9FFE79DF802109DF81F
:1021E00001209DF8053040F60400C4F20100FFF71D
:1021F0004FFD6BE09DF8070001280DD1FFE79DF82A
:1022000002109DF801209DF8053040F60440C4F20C
:102210000100FFF73DFD58E09DF8070002280DD1B1
:10222000FFE79DF802109DF801209DF8053041F26E
:102230000400C4F20100FFF72BFD45E09DF8070004
:1022400003280DD1FFE79DF802109DF801209DF8AD
:10225000053041F20440C4F20100FFF719FD32E0FD
:102260009DF8070004280DD1FFE79DF802109DF8A6
:1022700001209DF8053041F60400C4F20100FFF78B
:1022800007FD1FE09DF8070005280DD1FFE79DF829
:1022900002109DF801209DF8053041F60440C4F27B
:1022A0000100FFF7F5FC0CE09DF802109DF80120FD
:1022B0009DF8053042F20400C4F20100FFF7E8FC8B
:1022C000FFE7FFE7FFE7FFE7FFE7FFE7FFE702B012
:1022D00080BD000082B001908DF803108DF80220BF
:1022E0009DF8020001280AD1FFE79DF803100120A4
:1022F00000FA01F2019908681043086009E09DF8AE
:102300000310012000FA01F2019908689043086067
:10231000FFE702B07047000080B500F001F880BD13
:1023200084B000200390029041F20001C4F2020147
:10233000086840F480300860FFE741F20000C4F212
:102340000200006800F4003002900398013003900E
:10235000FFE702990020019039B9FFE70398B0F533
:10236000A06018BF01200190FFE70198C007002876
:10237000E3D1FFE741F20000C4F2020000688003ED
:10238000002803D5FFE70120029002E00020029020
:10239000FFE70298012851D1FFE742F20001C4F2A1
:1023A0000201086840F010000860086820F007008B
:1023B0000860086840F00200086041F20401C4F2BD
:1023C000020100910868086008680860086840F425
:1023D00080600860086820F47C100860086840F499
:1023E000E810086041F20001C4F20201086840F000
:1023F00080700860FFE741F20000C4F2020000684C
:102400008001002801D4FFE7F5E741F20401C4F29E
:102410000201086820F003000860086840F002002C
:102420000860FFE741F20400C4F20200006800F017
:102430000C00082801D0FFE7F4E700E0FFE704B054
:102440007047000080B584B001200390FFF7C8F802
:1024500000200190092102220292FFF717FE019845
:10246000029A039B0A21FFF75FFC0421C4F20101D9
:10247000086820F00400086004B080BD40F27001DC
:10248000C2F20001086801300860704780B541F26F
:102490000002C4F20202106840F00100106041F234
:1024A0000401C4F2020108680023CFF6FF031840BC
:1024B000086010684FF6FF73CFF6F663184010609F
:1024C000106820F480201060086820F4FE00086086
:1024D00041F20801C4F202014FF41F000860FFF747
:1024E0001BFF4EF60851CEF200014FF0006008606D
:1024F00080BD00001021C4F20001086820F0010036
:10250000086040F26001C2F2000108680130086012
:102510007047000080B543F60400C4F20100016872
:1025200040F26500C2F200000170012100F00EF8D7
:102530002520FFF701FB80BD41F21801C4F2020122
:10254000086840F4804008607047000083B0029043
:102550000191002000900090FFE7009801998842C7
:102560001AD2FFE7FFE743F60000C4F2010000685B
:102570000006002801D4FFE7F5E70298007843F64B
:102580000401C4F201010860029801300290FFE7E3
:10259000009801300090E0E7FFE743F60000C4F246
:1025A000010000684006002801D4FFE7F5E703B00A
:1025B0007047000080B582B0FFF744FFFFF7BCFF13
:1025C00043F60C01C4F20101086840F008000860FD
:1025D000086840F004000860086820F48050086033
:1025E000086840F02000086043F60802C4F20102C7
:1025F000106840F4EA501060106840F00C00106061
:10260000086840F400500860252001900121FFF780
:10261000C7FA0198FFF790FA0198FFF7A7FA02B0FE
:1026200080BD000080B5FEF755FF002080BD5FEA49
:10263000400C08BF91F0000F4FEA8C234FEAC122F3
:1026400043EA51514FEA1C5018BF00F5F0404FEAE1
:10265000300018BF41F000415FEA6C5C00F0298057
:10266000BCF1FF3F08BF40F080407047130C06BF2D
:1026700012044FF0100C4FF0000C130E04BF1202A6
:102680000CF1080C130F04BF12010CF1040C930F92
:1026900004BF92000CF1020CD30F04BF52000CF1E6
:1026A000010C11464FF00002A0F11F00A0EB0C003E
:1026B000704711F0004F08BF704731F000413FF400
:1026C000D5AF0B0C06BF09044FF0100C4FF0000CF7
:1026D0000B0E04BF09020CF1080C0B0F04BF09011B
:1026E0000CF1040C8B0F04BF89000CF1020CCB0F12
:1026F00004BF49000CF1010CCCF1200322FA03F3D2
:1027000041EA030102FA0CF2A0EB0C0000F1010017
:102710007047000023F07F4720F07F4C80EA0300E1
:1027200000F00040ACEB070303F57C5303F1FF031B
:102730002DE9804909B44FEA144324EA03484FEADB
:10274000154B25EA0B4E0FF2042606EB13273E78B5
:1027500003FB0667C7F5000707FB06F64FEAD646F8
:1027600006F102064FEA543707FB066CCCF1005C19
:102770004FEA1C472CEA074C0CFB06F507FB06F456
:1027800004EB15464FEA961649085FEA320234BF59
:1027900000204FF000404FEAD13706FB07FC4FEA1C
:1027A0001C4C0CFB0BF7D21B03FB0CF761EB070176
:1027B0000CFB0EF7B0EB074072EB17420CFB08F76F
:1027C00034BFA2EB0742B2EB074261EB17414FEA7D
:1027D0000C444FEA910706FB07FC4FEA1C4C0CFB2C
:1027E0000BF7B0EBC74072EB573203FB0CF734BF6B
:1027F000A2EBC742B2EBC74261EB57310CFB0EF7BD
:10280000B0EBC70072EB57720CFB08F734BFA2EBBA
:10281000C702B2EBC70261EB57714FEA816141EA2F
:1028200092114FEA826242EA90124FEA806004EB12
:10283000CC04039F4FEAD13706FB07FC4FEA1C4C40
:102840000CFB0BF7D21B03FB0CF761EB07010CFB36
:102850000EF7B0EB074072EB17420CFB08F734BFE2
:10286000A2EB0742B2EB074261EB17414FEA8C55EE
:1028700004EB9C244FEA910706FB07FC4FEA1C4C33
:102880000CFB0BF7B0EBC74072EB573203FB0CF7B6
:1028900034BFA2EBC742B2EBC74261EB57310CFB2E
:1028A0000EF7B0EBC70072EB57720CFB08F734BFA2
:1028B000A2EBC702B2EBC70261EB57714FEA81612D
:1028C00041EA92114FEA826242EA90124FEA806036
:1028D00015EB4C2544F100044FEAD13706FB07FC09
:1028E0004FEA1C4C0CFB0BF7D21B03FB0CF761EB04
:1028F00007010CFB0EF7B0EB074072EB17420CFB25
:1029000008F734BFA2EB0742B2EB074261EB174175
:102910004FEA813141EA92414FEA823242EA9042E3
:102920004FEA80304FEA0C7615EB1C1544F1000499
:1029300048EA03434EEA0B484FF0000EB2EB080C96
:1029400071EB030724BF624639464EEB0E0E4FF083
:10295000000B0018524149414BEB0B0BB2EB080C3A
:1029600071EB03077BF1000B24BF624639464EEB47
:102970000E0E4FF0000B0018524149414BEB0B0B70
:10298000B2EB080C71EB03077BF1000B24BF62462E
:1029900039464EEB0E0E51EA020718BF46F001060B
:1029A00016EB0E7655F1000254F1000103D5BDE897
:1029B0008901BDE80088BDE88901BDE80048B61975
:1029C000524141EB0101A3F10103704780807F7EFA
:1029D0007D7C7B7A79787776767574737271717095
:1029E0006F6E6E6D6C6C6B6A6A6968686766666547
:1029F0006464636362616160605F5F5E5E5D5D5CD5
:102A00005C5B5B5A5A595958585757565655555545
:102A10005454535352525251515050504F4F4F4EA5
:102A20004E4D4D4D4C4C4C4B4B4B4A4A4A494949F3
:102A30004848484747474746464645454544444435
:102A40004443434343424242424141419C46002B5E
:102A500030D477002BD04FEA37071CB503B44FF0C2
:102A600010004FF01001BAF1000F06D0BCF1000FBA
:102A7000DCBF40F0080040F008014FF000000FBC40
:102A8000BDE810400BF1010BBBF1010F08BF5FEA7D
:102A9000170722BF12F1010211F101014FF00041AD
:102AA00043F1000300F0004043EA00007047F9D30F
:102AB0005708D0E746EA06464FEA164613F1400F9C
:102AC0001FDD13F1200FDFBF16430A46002120331C
:102AD0005B42BED0C3F1200746EA06464FEA1646DF
:102AE00002FA07F746EA070622FA03F2C3F12007C3
:102AF00001FA07F742EA070221FA03F14FF0000357
:102B0000A7E746EA020646EA06464FEA164646EABE
:102B10000106BCBF46EA0646360C4FF000034FF0F4
:102B200000024FF0000194E72DE9804C70B49A4602
:102B3000934691E8380007C831EA400C48BF34EAB0
:102B4000430C03D5FFF7E6FDFFF780FFF0BCBDE8BF
:102B5000008C2DE9804C70B49A46934691E8380079
:102B600007C810F0804F08BF13F0804F03D100F06A
:102B700005F8FFF76BFFF0BCBDE8008C20F07F4745
:102B800023F07F4C80EA030000F0004007EB0C03C9
:102B9000A3F57C53A3F1FE0392F0000F00F0B38085
:102BA00095F0000F00F077802DE901494FEA1140C0
:102BB00021EA00484FEA144624EA064700FB06FCD7
:102BC00008FB06F607FB08F818EB06484CEB164C1A
:102BD00000FB07F718EB07484CEB17404FEA124B86
:102BE00022EA0B4E4FEA154625EA06470BFB06FC88
:102BF0000EFB06F607FB0EFE1EEB064E4CEB164CCC
:102C00000BFB07F71EEB074E4CEB174B18EB0B08B3
:102C100040F1000018EB0E0B58EB000840F10000EB
:102C20008F1A4FF000014FF000063CBFC943661BEE
:102C300014BFB5EB040C00213CBFC943F61B4FEA9F
:102C4000174427EA04454FEA1C472CEA074C04FBCB
:102C5000076205FB07F70CFB05F616EB074642EB90
:102C6000174204FB0CFC16EB0C4642EB1C421BEB20
:102C7000060658EB020241414EEA8E0E46EA9E06D7
:102C800001D5BDE80189B619524141EB0101A3F11B
:102C90000103BDE801894FEA144524EA05464FEADD
:102CA000114721EA074C05FB07F406FB07F70CFB6D
:102CB00006F111EB074144EB174405FB0CFC11EB4B
:102CC0000C4144EB1C444FEA124722EA074C05FB37
:102CD00007F206FB07F70CFB06F616EB074642EB7E
:102CE000174205FB0CFC16EB0C4642EB1C456A1820
:102CF00054F1000148BF7047B619524141EB010140
:102D0000A3F10103704795F0000F37D04FEA11424D
:102D100021EA02464FEA144724EA074C02FB07F176
:102D200006FB07F70CFB06F414EB074441EB1741D5
:102D300002FB0CFC14EB0C4441EB1C414FEA154721
:102D400025EA074C02FB07F506FB07F70CFB06F626
:102D500016EB074645EB174502FB0CFC16EB0C4641
:102D600045EB1C42121951F1000148BF7047B619DA
:102D7000524141EB0101A3F1010370474FEA1445B1
:102D800024EA05464FEA114721EA074C05FB07F103
:102D900006FB07F70CFB06F212EB074241EB17416B
:102DA00005FB0CFC12EB0C4251EB1C414FF00006F2
:102DB00048BF7047921841EB0101A3F1010370472E
:102DC000490050EAC12018BF04204A0D18BF40F046
:102DD000010040F2FF72B2EB515F08BF40F0020009
:102DE000012808BF0520704730380A2801D2012089
:102DF000704700207047000010B500290AD00878FD
:102E0000002807D005487844FEF7A8FA002801D02A
:102E1000002010BD0248784410BD00007E01000073
:102E20007601000010B500290AD00878002807D0E4
:102E300005487844FEF792FA002801D0002010BD22
:102E40000248784410BD00006E01000066010000D9
:102E5000FDF78DBEFDF7C2BF0000000000000000BE
:102E600030313233343536373839414243444546C0
:102E700040305800303132333435363738396162BA
:102E800063646566403078000400000800000000BC
:102E900000000002000100001030313233343536BA
:102EA0003738396162636465667870003031323377
:102EB000343536373839414243444546585000008E
:102EC00002400000000000A00000000005400000DB
:102ED000000000C8000000000C4000000000409C02
:102EE00000000000194000000020BCBE00000000EF
:102EF00034400000BFC91B8E00000004B540000034
:102F0000504BCFD06607E2CF010000006C410000BB
:102F10003E8251AADFEEA73401000000D942000032
:102F2000DCB5A0E23A301F97FFFFFFFFB445000079
:102F3000FD25A0C8E9A3C14FFFFFFFFFFF3F000031
:102F40000000008000000000FF3F00000000008043
:102F500000000000443A2025642F25642F25642FAB
:102F60002564202D20543A2025643A25643A2564AE
:102F7000200A0000B03000080000002078060000A1
:102F8000280100081C00000043000000F8FFFFFFBC
:102F90000C0000000E0000000F0000002E000000DA
:102FA0001001000043000000F8FFFFFF0040404018
:102FB000404040404040414141414140404040400C
:102FC00040404040404040404040404040050202B8
:102FD0000202020202020202020202020220202077
:102FE00020202020202020020202020202029090D3
:102FF00090909090101010101010101010101010D1
:103000001010101010101010020202020202888824
:103010008888888808080808080808080808080830
:103020000808080808080808020202024000000018
:103030000000000000000000000000000000000090
:103040000000000000000000000000000000000080
:103050000000000000000000000000000000000070
:103060000000000000000000000000000000000060
:103070000000000000000000000000000000000050
:103080000000000000000000000000000000000040
:103090000000000000000000000000000000000030
:1030A0000000000000000000000000000000000020
:04000005080000ED02
:00000001FF
