:020000040800F2
:10000000680600206D0100087501000877010008EE
:10001000790100087B0100087D0100080000000054
:100020000000000000000000000000007F01000848
:100030008101000800000000830100087D0C000819
:100040008701000887010008870100088701000870
:10005000870100088701000887010008690200087D
:100060008701000887010008870100088701000850
:100070008701000887010008870100088701000840
:100080008701000887010008870100088701000830
:100090008701000887010008870100088701000820
:1000A0008701000887010008870100088701000810
:1000B0008701000887010008870100088701000800
:1000C00087010008870100088701000887010008F0
:1000D00087010008870100088701000887010008E0
:1000E00087010008870100088701000800F002F876
:1000F00000F02CF80AA090E8000C82448344AAF196
:100100000107DA4501D100F021F8AFF2090EBAE893
:100110000F0013F0010F18BFFB1A43F0010318473B
:10012000400D0000500D0000002300240025002693
:10013000103A28BF78C1FBD8520728BF30C148BF4A
:100140000B6070471FB51FBD10B510BD00F031F832
:100150001146FFF7F7FF00F051FE00F04FF803B42F
:10016000FFF7F2FF03BC00F057F800000948804792
:1001700009480047FEE7FEE7FEE7FEE7FEE7FEE789
:10018000FEE7FEE7FEE7FEE704480549054A064BA1
:10019000704700008D0C0008ED000008680000208A
:1001A000680600206802002068020020704770473F
:1001B0007047754600F02CF8AE4605006946534678
:1001C00020F00700854618B020B5FFF7DDFFBDE839
:1001D00020404FF000064FF000074FF000084FF0AE
:1001E000000BAC46ACE8C009ACE8C009ACE8C009FB
:1001F000ACE8C00921F007018D46704710B50446F0
:10020000AFF300802046BDE81040FFF7A8BF000014
:10021000004870470000002001491820ABBEFEE7EF
:10022000260002007047000083B002900020019079
:1002300000900190FFE701980299884212D8FFE7E9
:1002400000200090FFE70098B0F57A7F05D8FFE71F
:10025000FFE7009801300090F5E7FFE701980130D3
:100260000190E8E703B0704740F21440C4F2010087
:100270000078800700281BD5FFE740F26400C2F237
:1002800000000178013101700078022807DBFFE7E8
:1002900040F26401C2F2000100200870FFE740F262
:1002A0001441C4F20101086840F002000860FFE751
:1002B0007047000081B08DF803009DF8030001280D
:1002C00009D1FFE741F21801C4F20201086840F0C9
:1002D0000400086008E041F21801C4F20201086855
:1002E00020F004000860FFE701B0704781B08DF88E
:1002F00003009DF80300012809D1FFE741F218012E
:10030000C4F20201086840F00800086008E041F209
:100310001801C4F20201086820F008000860FFE735
:1003200001B0704781B08DF803009DF803000128EB
:1003300009D1FFE741F21801C4F20201086840F058
:100340001000086008E041F21801C4F202010868D8
:1003500020F010000860FFE701B0704781B041F263
:100360000401C4F20201086820F00300086041F2B1
:100370001401C4F20201086820F48050086041F2C0
:100380000001C4F20201086820F08070086008686B
:1003900040F480300860FFE741F20200C4F202003E
:1003A00000788007002801D4FFE7F5E741F22C012F
:1003B000C4F20201086820F480300860086820F068
:1003C0000F00086041F20401C4F2020100910868C4
:1003D00040F480300860086820F4701008600868F5
:1003E00040F4E0100860086820F480600860086845
:1003F00020F400500860086820F0F00008600868E9
:1004000040F00100086041F20002C4F202021068EC
:1004100020F001001060106840F0807010600868E3
:1004200020F070600860086820F00100086008682B
:1004300040F002000860FFE741F20400C4F202004D
:1004400000780007002801D4FFE7F5E701B0704706
:1004500082B001908DF803108DF802208DF80130E4
:100460009DF80310032000FA01F3019A11689943E3
:1004700011609DF8021000FA01F20199086890439A
:1004800008609DF8010001280AD1FFE79DF80210DD
:10049000012000FA01F2019908681043086010E099
:1004A0009DF8010002280AD1FFE79DF80210022002
:1004B00000FA01F2019908681043086000E0FFE7C4
:1004C000FFE702B07047000082B001908DF8031082
:1004D0008DF802208DF801309DF80310032000FAFA
:1004E00001F3019A1168194311609DF8021000FA96
:1004F00001F201990868904308609DF80100012805
:100500000AD1FFE79DF80210012000FA01F20199DB
:1005100008681043086020E09DF8010002280AD115
:10052000FFE79DF80210022000FA01F20199086825
:100530001043086010E09DF8010003280AD1FFE78E
:100540009DF80210032000FA01F201990868104397
:10055000086000E0FFE7FFE7FFE702B07047000038
:1005600080B582B08DF807008DF806108DF8052053
:100570008DF804309DF80600072800F3CF80FFE7D0
:100580009DF8060080008DF803009DF803000230FE
:100590008DF802009DF80700B8B9FFE79DF8031039
:1005A0009DF802209DF8053040F60000C4F20100DD
:1005B000FFF74EFF9DF806109DF8042040F60C0052
:1005C000C4F2010000F0A2FAA7E09DF8070001289C
:1005D00017D1FFE79DF803109DF802209DF8053024
:1005E00040F60040C4F20100FFF732FF9DF806100C
:1005F0009DF8042040F60C40C4F2010000F086FA99
:100600008AE09DF80700022817D1FFE79DF8031044
:100610009DF802209DF8053041F20000C4F201006F
:10062000FFF716FF9DF806109DF8042041F20C001C
:10063000C4F2010000F06AFA6DE09DF8070003289B
:1006400017D1FFE79DF803109DF802209DF80530B3
:1006500041F20040C4F20100FFF7FAFE9DF80610D7
:100660009DF8042041F20C40C4F2010000F04EFA63
:1006700050E09DF80700042817D1FFE79DF803100C
:100680009DF802209DF8053041F60000C4F20100FB
:10069000FFF7DEFE9DF806109DF8042041F60C00E1
:1006A000C4F2010000F032FA33E09DF8070005289B
:1006B00017D1FFE79DF803109DF802209DF8053043
:1006C00041F60040C4F20100FFF7C2FE9DF806109B
:1006D0009DF8042041F60C40C4F2010000F016FA27
:1006E00016E09DF803109DF802209DF8053042F2B7
:1006F0000000C4F20100FFF7ABFE9DF806109DF864
:10070000042042F20C00C4F2010000F0FFF9FFE700
:10071000FFE7FFE7FFE7FFE7FFE7D0E09DF8061000
:100720006FF01F0000EB81008DF801009DF80100C3
:1007300002308DF800009DF80700B8B9FFE79DF87A
:1007400001109DF800209DF8053040F60400C4F229
:100750000100FFF77DFE9DF806109DF8042040F68D
:100760000C00C4F2010000F0D1F9A7E09DF80700E9
:10077000012817D1FFE79DF801109DF800209DF892
:10078000053040F60440C4F20100FFF761FE9DF819
:1007900006109DF8042040F60C40C4F2010000F061
:1007A000B5F98AE09DF80700022817D1FFE79DF808
:1007B00001109DF800209DF8053041F20400C4F2BC
:1007C0000100FFF745FE9DF806109DF8042041F258
:1007D0000C00C4F2010000F099F96DE09DF80700EB
:1007E000032817D1FFE79DF801109DF800209DF820
:1007F000053041F20440C4F20100FFF729FE9DF8E4
:1008000006109DF8042041F20C40C4F2010000F0F3
:100810007DF950E09DF80700042817D1FFE79DF807
:1008200001109DF800209DF8053041F60400C4F247
:100830000100FFF70DFE9DF806109DF8042041F61B
:100840000C00C4F2010000F061F933E09DF80700EC
:10085000052817D1FFE79DF801109DF800209DF8AD
:10086000053041F60440C4F20100FFF7F1FD9DF8A8
:1008700006109DF8042041F60C40C4F2010000F07F
:1008800045F916E09DF801109DF800209DF805300F
:1008900042F20400C4F20100FFF7DAFD9DF80610F1
:1008A0009DF8042042F20C00C4F2010000F02EF981
:1008B000FFE7FFE7FFE7FFE7FFE7FFE7FFE702B03C
:1008C00080BD000080B582B08DF807008DF806105D
:1008D0008DF805209DF80600072800F38980FFE7C2
:1008E0009DF8060080008DF804009DF80400023099
:1008F0008DF803009DF8070068B9FFE79DF8041024
:100900009DF803209DF8053040F60000C4F2010078
:10091000FFF7DAFD6BE09DF8070001280DD1FFE736
:100920009DF804109DF803209DF8053040F6004026
:10093000C4F20100FFF7C8FD58E09DF80700022847
:100940000DD1FFE79DF804109DF803209DF80530B8
:1009500041F20000C4F20100FFF7B6FD45E09DF84A
:10096000070003280DD1FFE79DF804109DF8032030
:100970009DF8053041F20040C4F20100FFF7A4FDEC
:1009800032E09DF8070004280DD1FFE79DF8041020
:100990009DF803209DF8053041F60000C4F20100E7
:1009A000FFF792FD1FE09DF8070005280DD1FFE736
:1009B0009DF804109DF803209DF8053041F6004095
:1009C000C4F20100FFF780FD0CE09DF804109DF8D3
:1009D00003209DF8053042F20000C4F20100FFF749
:1009E00073FDFFE7FFE7FFE7FFE7FFE7FFE78AE0C9
:1009F0009DF806106FF01F0000EB81008DF80200DB
:100A00009DF8020002308DF801009DF8070068B9DA
:100A1000FFE79DF802109DF801209DF8053040F693
:100A20000400C4F20100FFF74FFD6BE09DF80700E2
:100A300001280DD1FFE79DF802109DF801209DF8D7
:100A4000053040F60440C4F20100FFF73DFD58E0D8
:100A50009DF8070002280DD1FFE79DF802109DF8D0
:100A600001209DF8053041F20400C4F20100FFF7B7
:100A70002BFD45E09DF8070003280DD1FFE79DF809
:100A800002109DF801209DF8053041F20440C4F2A7
:100A90000100FFF719FD32E09DF8070004280DD191
:100AA000FFE79DF802109DF801209DF8053041F602
:100AB0000400C4F20100FFF707FD1FE09DF80700E6
:100AC00005280DD1FFE79DF802109DF801209DF843
:100AD000053041F60440C4F20100FFF7F5FC0CE0DC
:100AE0009DF802109DF801209DF8053042F20400A7
:100AF000C4F20100FFF7E8FCFFE7FFE7FFE7FFE7CD
:100B0000FFE7FFE7FFE702B080BD000082B0019081
:100B10008DF803108DF802209DF8020001280AD1FB
:100B2000FFE79DF80310012000FA01F2019908681F
:100B30001043086009E09DF80310012000FA01F25B
:100B40000199086890430860FFE702B07047000011
:100B500080B500F001F880BD84B0002003900290C1
:100B600041F20001C4F20201086840F480300860DC
:100B7000FFE741F20000C4F20200006800F4003018
:100B80000290039801300390FFE702990020019042
:100B900039B9FFE70398B0F5A06018BF01200190B4
:100BA000FFE70198C0070028E3D1FFE741F200000A
:100BB000C4F2020000688003002803D5FFE701208B
:100BC000029002E000200290FFE70298012851D134
:100BD000FFE742F20001C4F20201086840F0100091
:100BE0000860086820F007000860086840F002000C
:100BF000086041F20401C4F2020100910868086033
:100C000008680860086840F480600860086820F49C
:100C10007C100860086840F4E810086041F20001A8
:100C2000C4F20201086840F080700860FFE741F2FA
:100C30000000C4F2020000688001002801D4FFE730
:100C4000F5E741F20401C4F20201086820F0030054
:100C50000860086840F002000860FFE741F2040005
:100C6000C4F20200006800F00C00082801D0FFE781
:100C7000F4E700E0FFE704B07047000040F26001D5
:100C8000C2F20001086801300860704780B541F287
:100C90000002C4F20202106840F00100106041F24C
:100CA0000401C4F2020108680023CFF6FF031840D4
:100CB000086010684FF6FF73CFF6F66318401060B7
:100CC000106820F480201060086820F4FE0008609E
:100CD00041F20801C4F202014FF41F000860FFF75F
:100CE00037FF4EF60851CEF200014FF00060086069
:100CF00080BD000081B08DF803008DF802109DF8D2
:100D0000030068B9FFE79DF80210012000FA01F224
:100D100040F60C01C4F201010868504008606BE025
:100D20009DF8030001280DD1FFE79DF80210012076
:100D300000FA01F240F60C41C4F20101086850408B
:100D4000086058E09DF8030002280DD1FFE79DF8E8
:100D50000210012000FA01F241F20C01C4F201017B
:100D600008685040086045E09DF8030003280DD155
:100D7000FFE79DF80210012000FA01F241F20C4158
:100D8000C4F2010108685040086032E09DF8030099
:100D900004280DD1FFE79DF80210012000FA01F2AE
:100DA00041F60C01C4F201010868504008601FE0E0
:100DB0009DF8030005280DD1FFE79DF802100120E2
:100DC00000FA01F241F60C41C4F2010108685040FA
:100DD00008600CE09DF80210012000FA01F242F2D6
:100DE0000C01C4F20101086850400860FFE7FFE70A
:100DF000FFE7FFE7FFE7FFE701B0704780B584B08A
:100E0000002002900390FFF7A9FA01200190FFF75C
:100E100089FA0198FFF76AFA0198FFF74BFA019BEC
:100E20000298022200921946FFF79AFB0098029A54
:100E30000D21FFF747FD0198029A0521FFF742FDBA
:100E40000198029A0621FFF73DFDFFE702200D21E0
:100E5000FFF750FF4FF47A70FFF7E6F9F6E700006E
:100E6000700E00080000002068060000280100083D
:04000005080000ED02
:00000001FF
