:020000040800F2
:10000000700600206D0100087501000877010008E6
:10001000790100087B0100087D0100080000000054
:100020000000000000000000000000007F01000848
:100030008101000800000000830100083506000867
:100040008701000887010008870100088701000870
:1000500087010008870100088701000829020008BD
:100060008701000887010008870100088701000850
:100070008701000887010008870100088701000840
:100080008701000887010008870100088701000830
:100090008701000887010008870100088701000820
:1000A0008701000887010008870100088701000810
:1000B000AD060008870100088701000887010008D5
:1000C00087010008870100088701000887010008F0
:1000D00087010008870100088701000887010008E0
:1000E00087010008870100088701000800F002F876
:1000F00000F02CF80AA090E8000C82448344AAF196
:100100000107DA4501D100F021F8AFF2090EBAE893
:100110000F0013F0010F18BFFB1A43F0010318473B
:10012000B8050000C80500000023002400250026B3
:10013000103A28BF78C1FBD8520728BF30C148BF4A
:100140000B6070471FB51FBD10B510BD00F031F832
:100150001146FFF7F7FF00F0B9FA00F04FF803B4CB
:10016000FFF7F2FF03BC00F057F800000948804792
:1001700009480047FEE7FEE7FEE7FEE7FEE7FEE789
:10018000FEE7FEE7FEE7FEE704480549054A064BA1
:100190007047000045060008ED00000870000020D0
:1001A0007006002070020020700200207047704727
:1001B0007047754600F02CF8AE4605006946534678
:1001C00020F00700854618B020B5FFF7DDFFBDE839
:1001D00020404FF000064FF000074FF000084FF0AE
:1001E000000BAC46ACE8C009ACE8C009ACE8C009FB
:1001F000ACE8C00921F007018D46704710B50446F0
:10020000AFF300802046BDE81040FFF7A8BF000014
:10021000004870470000002001491820ABBEFEE7EF
:10022000260002007047000040F21440C4F20100B2
:100230000078800700281BD5FFE740F26800C2F273
:1002400000000178013101700078022807DBFFE728
:1002500040F26801C2F2000100200870FFE740F29E
:100260001441C4F20101086840F002000860FFE791
:100270007047000081B08DF803009DF8030001284D
:1002800009D1FFE741F21801C4F20201086840F009
:100290000400086008E041F21801C4F20201086895
:1002A00020F004000860FFE701B0704781B041F220
:1002B0000401C4F20201086820F00300086041F262
:1002C0001401C4F20201086820F48050086041F271
:1002D0000001C4F20201086820F08070086008681C
:1002E00040F480300860FFE741F20200C4F20200EF
:1002F00000788007002801D4FFE7F5E741F22C01E0
:10030000C4F20201086820F480300860086820F018
:100310000F00086041F20401C4F202010091086874
:1003200040F480300860086820F4701008600868A5
:1003300040F4E0100860086840F4805008600868E5
:1003400020F400500860086820F0F0000860086899
:1003500040F00100086041F20002C4F2020210689D
:1003600020F001001060106840F080701060086894
:1003700020F070600860086820F0010008600868DC
:1003800040F002000860FFE741F20400C4F20200FE
:1003900000780007002801D4FFE7F5E701B07047B7
:1003A00081B00020009040F60002C4F20102116802
:1003B00021F00F011160116841F003011160116813
:1003C00041F00801116041F21C02C4F202021168FE
:1003D00041F0010111602822C4F2000240F2CF2155
:1003E00011602C22C4F20002632111602421C4F2A6
:1003F000000108601822C4F20002116841F0600197
:100400001160116841F0080111603421C4F200014B
:1004100008602021C4F20001086820F00200086092
:10042000086840F001000860009820F0100000907B
:10043000009840F080000090009840F0010000908B
:1004400000984FF0804108601421C4F2000101209F
:10045000086001B07047000080B584B0FFF726FF48
:100460000120FFF707FFFFF79BFFFFE70020039046
:10047000FFE70398632820D8FFE7039864214843E7
:1004800048F21F51C5F2EB11A0FB011040093421C5
:10049000C4F20001086000200290FFE70298B0F566
:1004A0007A7F05D8FFE7FFE7029801300290F5E771
:1004B000FFE7039801300390DBE763200190FFE73B
:1004C000019800B3FFE701986421484348F21F51A7
:1004D000C5F2EB11A0FB011040093421C4F2000168
:1004E000086000200090FFE70098B0F57A7F05D8FB
:1004F000FFE7FFE7009801300090F5E7FFE701987C
:1005000001380190DCE7B1E780B500F001F880BD6B
:1005100084B000200390029041F20001C4F2020175
:10052000086840F480300860FFE741F20000C4F240
:100530000200006800F4003002900398013003903C
:10054000FFE702990020019039B9FFE70398B0F561
:10055000A06018BF01200190FFE70198C0070028A4
:10056000E3D1FFE741F20000C4F20200006880031B
:10057000002803D5FFE70120029002E0002002904E
:10058000FFE70298012851D1FFE742F20001C4F2CF
:100590000201086840F010000860086820F00700B9
:1005A0000860086840F00200086041F20401C4F2EB
:1005B000020100910868086008680860086840F453
:1005C00080600860086820F47C100860086840F4C7
:1005D000E810086041F20001C4F20201086840F02E
:1005E00080700860FFE741F20000C4F2020000687A
:1005F0008001002801D4FFE7F5E741F20401C4F2CD
:100600000201086820F003000860086840F002005A
:100610000860FFE741F20400C4F20200006800F045
:100620000C00082801D0FFE7F4E700E0FFE704B082
:100630007047000040F26401C2F200010868013016
:100640000860704780B541F20002C4F202021068EF
:1006500040F00100106041F20401C4F20201086898
:100660000023CFF6FF031840086010684FF6FF73B1
:10067000CFF6F66318401060106820F480201060F8
:10068000086820F4FE00086041F20801C4F202018B
:100690004FF41F000860FFF737FF4EF60851CEF207
:1006A00000014FF00060086080BD00001021C4F21E
:1006B0000001086820F00100086040F26001C2F209
:1006C00000010868013008607047000080B5FFF73E
:1006D000C3FE002080BD0000E806000800000020E6
:0806E00070060000280100086B
:04000005080000ED02
:00000001FF
