:020000040800F2
:10000000B80600208901000891010008930100084A
:100010009501000897010008990100080000000000
:100020000000000000000000000000009B0100082C
:100030009D010008000000009F010008390F000822
:10004000A3010008A3010008A3010008A301000800
:10005000A3010008A3010008A3010008B1020008E1
:10006000A3010008A3010008A3010008A3010008E0
:10007000A3010008A3010008A3010008450200082D
:10008000A3010008A3010008A3010008A3010008C0
:10009000A3010008A3010008A3010008A3010008B0
:1000A000A3010008A3010008A3010008A3010008A0
:1000B000B10F0008A3010008A3010008A301000874
:1000C000A3010008A3010008A3010008A906000875
:1000D000A301000839100008A3010008A3010008CB
:1000E000A3010008A3010008A301000800F002F822
:1000F00000F03AF80AA090E8000C82448344AAF188
:100100000107DA4501D100F02FF8AFF2090EBAE885
:100110000F0013F0010F18BFFB1A43F0010318473B
:100120004812000068120000103A24BF78C878C155
:10013000FAD8520724BF30C830C144BF04680C60ED
:10014000704700000023002400250026103A28BF35
:1001500078C1FBD8520728BF30C148BF0B60704739
:100160001FB51FBD10B510BD00F031F81146FFF7E7
:10017000F7FF01F0F3F800F04FF803B4FFF7F2FFD8
:1001800003BC00F057F800000948804709480047C1
:10019000FEE7FEE7FEE7FEE7FEE7FEE7FEE7FEE737
:1001A000FEE7FEE704480549054A064B7047000094
:1001B000490F0008ED000008B8000020B806002034
:1001C000B8020020B802002070477047704775469B
:1001D00000F02CF8AE4605006946534620F00700B3
:1001E000854618B020B5FFF7DDFFBDE820404FF091
:1001F00000064FF000074FF000084FF0000BAC4630
:10020000ACE8C009ACE8C009ACE8C009ACE8C0097A
:1002100021F007018D46704710B50446AFF300800A
:100220002046BDE81040FFF7A8BF00000048704717
:100230000800002001491820ABBEFEE7260002009E
:100240007047000080B50020C4F20200006800F48E
:10025000003001280ED1FFE740F26C01C2F200012C
:10026000012008700421C4F20201086840F4003043
:100270000860FFE70F2000F03FF980BD82B00190D9
:1002800001984FF47A7148430090FFE740F268000C
:10029000C2F2000000680099884201D8FFE7F5E744
:1002A00040F26801C2F200010020086002B070470D
:1002B00080B540F21440C4F20100006880070028B5
:1002C00021D5FFE7072000F017F940F21441C4F2EE
:1002D0000101086840F00200086040F2B000C2F27C
:1002E0000000007838B9FFE740F2B001C2F2000127
:1002F0000120087006E040F2B001C2F200010020C7
:100300000870FFE7FFE780BD81B08DF803009DF81E
:100310000300012809D1FFE741F21801C4F20201EC
:10032000086840F00400086008E041F21801C4F2D7
:100330000201086820F004000860FFE701B0704780
:1003400081B08DF803009DF80300012809D1FFE773
:1003500041F21801C4F20201086840F00800086088
:1003600008E041F21801C4F20201086820F0080018
:100370000860FFE701B0704781B041F20401C4F2A8
:100380000201086820F00300086041F21401C4F281
:100390000201086820F48050086041F20001C4F2B4
:1003A0000201086820F080700860086840F480301E
:1003B0000860FFE741F20000C4F202000068800319
:1003C000002801D4FFE7F5E741F22C01C4F2020155
:1003D000086820F480300860086820F00F0008608A
:1003E00041F20401C4F202010091086840F4803037
:1003F0000860086820F470100860086840F4E01095
:100400000860086820F480600860086840F4805044
:100410000860086820F400500860086820F0F000C8
:100420000860086840F00100086041F20002C4F270
:100430000202106820F001001060106840F0807027
:100440001060086820F070600860086820F0010003
:100450000860086840F002000860FFE741F204000D
:10046000C4F2020000680007002801D4FFE7F5E7A6
:1004700001B0704780B582B00020019041F21C02AB
:10048000C4F20202116841F0010111602821C4F296
:10049000000108602C22C4F20002482111602421CE
:1004A000C4F2000108600C21C4F20001086840F0A9
:1004B000010008601021C4F20001086820F001006A
:1004C00008601C20009000F017F8009800F02EF84B
:1004D000019820F010000190019840F00100019077
:1004E00001984FF0804108601421C4F200010120FE
:1004F000086002B080BD000081B08DF803009DF956
:10050000031001EBD16020F01F028A1A012101FAC9
:1005100002F342114EF28021CEF2000151F8220086
:10052000184341F8220001B07047000081B08DF8F7
:1005300003009DF9031001EBD16020F01F028A1A1D
:10054000012101FA02F342114EF20011CEF2000134
:1005500051F82200184341F8220001B07047000012
:1005600081B08DF803008DF802109DF802009DF90E
:10057000032002EB927121F00301521AD2000432DF
:1005800000FA02F34EF20042CEF2000288581843FD
:10059000885001B07047000082B08DF807008DF8D8
:1005A00006109DF8070060B9FFE740F60800C4F2A6
:1005B000010000689DF8062001219140084000904C
:1005C00065E09DF8070001280CD1FFE740F60840E0
:1005D000C4F2010000689DF8062001219140084006
:1005E000009053E09DF8070002280CD1FFE741F28C
:1005F0000800C4F2010000689DF806200121914026
:100600000840009041E09DF8070003280CD1FFE767
:1006100041F20840C4F2010000689DF80620012163
:100620009140084000902FE09DF8070004280CD16D
:10063000FFE741F60800C4F2010000689DF80620BB
:1006400001219140084000901DE09DF80700052819
:100650000CD1FFE741F60840C4F2010000689DF8A4
:10066000062001219140084000900BE042F2080072
:10067000C4F2010000689DF8062001219140084065
:100680000090FFE7FFE7FFE7FFE7FFE7FFE70098DE
:1006900002B0704740F61001C4F20101086840F052
:1006A000100008607047000080B582B043F20C0073
:1006B000C4F20100006840F27901C2F20001019128
:1006C0000870FFF7E7FF0198012100F011FD02B06B
:1006D00080BD000082B001908DF803108DF80220DB
:1006E0008DF801309DF80310032000FA01F3019A00
:1006F0001168994311609DF8021000FA01F2019906
:100700000868904308609DF8010001280AD1FFE7BE
:100710009DF80210012000FA01F2019908681043C7
:10072000086010E09DF8010002280AD1FFE79DF85B
:100730000210022000FA01F20199086810430860D3
:1007400000E0FFE7FFE702B07047000082B00190D1
:100750008DF803108DF802208DF801309DF80310FC
:10076000032000FA01F3019A1168194311609DF802
:10077000021000FA01F201990868904308609DF8A0
:10078000010001280AD1FFE79DF80210012000FABC
:1007900001F2019908681043086020E09DF801000B
:1007A00002280AD1FFE79DF80210022000FA01F2A8
:1007B000019908681043086010E09DF801000328C3
:1007C0000AD1FFE79DF80210032000FA01F2019917
:1007D00008681043086000E0FFE7FFE7FFE702B0AA
:1007E0007047000080B582B08DF807008DF80610C4
:1007F0008DF805208DF804309DF80600072800F3D9
:10080000CF80FFE79DF8060080008DF803009DF87B
:10081000030002308DF802009DF80700B8B9FFE729
:100820009DF803109DF802209DF8053040F6000069
:10083000C4F20100FFF74EFF9DF806109DF804205A
:1008400040F60C00C4F2010000F0A2FAA7E09DF807
:100850000700012817D1FFE79DF803109DF802203B
:100860009DF8053040F60040C4F20100FFF732FF6A
:100870009DF806109DF8042040F60C40C4F20100DB
:1008800000F086FA8AE09DF80700022817D1FFE7FA
:100890009DF803109DF802209DF8053041F20000FC
:1008A000C4F20100FFF716FF9DF806109DF8042022
:1008B00041F20C00C4F2010000F06AFA6DE09DF80C
:1008C0000700032817D1FFE79DF803109DF80220C9
:1008D0009DF8053041F20040C4F20100FFF7FAFE36
:1008E0009DF806109DF8042041F20C40C4F201006E
:1008F00000F04EFA50E09DF80700042817D1FFE7FA
:100900009DF803109DF802209DF8053041F6000087
:10091000C4F20100FFF7DEFE9DF806109DF80420EA
:1009200041F60C00C4F2010000F032FA33E09DF809
:100930000700052817D1FFE79DF803109DF8022056
:100940009DF8053041F60040C4F20100FFF7C2FEF9
:100950009DF806109DF8042041F60C40C4F20100F9
:1009600000F016FA16E09DF803109DF802209DF89D
:10097000053042F20000C4F20100FFF7ABFE9DF823
:1009800006109DF8042042F20C00C4F2010000F0B1
:10099000FFF9FFE7FFE7FFE7FFE7FFE7FFE7D0E04B
:1009A0009DF806106FF01F0000EB81008DF801002C
:1009B0009DF8010002308DF800009DF80700B8B9DD
:1009C000FFE79DF801109DF800209DF8053040F6E6
:1009D0000400C4F20100FFF77DFE9DF806109DF8AB
:1009E000042040F60C00C4F2010000F0D1F9A7E0A9
:1009F0009DF80700012817D1FFE79DF801109DF829
:100A000000209DF8053040F60440C4F20100FFF7D5
:100A100061FE9DF806109DF8042040F60C40C4F2DB
:100A2000010000F0B5F98AE09DF80700022817D10F
:100A3000FFE79DF801109DF800209DF8053041F278
:100A40000400C4F20100FFF745FE9DF806109DF872
:100A5000042041F20C00C4F2010000F099F96DE0AD
:100A60009DF80700032817D1FFE79DF801109DF8B6
:100A700000209DF8053041F20440C4F20100FFF768
:100A800029FE9DF806109DF8042041F20C40C4F2A6
:100A9000010000F07DF950E09DF80700042817D10F
:100AA000FFE79DF801109DF800209DF8053041F604
:100AB0000400C4F20100FFF70DFE9DF806109DF83A
:100AC000042041F60C00C4F2010000F061F933E0AB
:100AD0009DF80700052817D1FFE79DF801109DF844
:100AE00000209DF8053041F60440C4F20100FFF7F4
:100AF000F1FD9DF806109DF8042041F60C40C4F26B
:100B0000010000F045F916E09DF801109DF8002065
:100B10009DF8053042F20400C4F20100FFF7DAFD4F
:100B20009DF806109DF8042042F20C00C4F201006A
:100B300000F02EF9FFE7FFE7FFE7FFE7FFE7FFE73A
:100B4000FFE702B080BD000080B582B08DF80700DD
:100B50008DF806108DF805209DF80600072800F393
:100B60008980FFE79DF8060080008DF804009DF85D
:100B7000040002308DF803009DF8070068B9FFE714
:100B80009DF804109DF803209DF8053040F6000004
:100B9000C4F20100FFF7DAFD6BE09DF807000128C1
:100BA0000DD1FFE79DF804109DF803209DF8053056
:100BB00040F60040C4F20100FFF7C8FD58E09DF880
:100BC000070002280DD1FFE79DF804109DF80320CF
:100BD0009DF8053041F20000C4F20100FFF7B6FDB8
:100BE00045E09DF8070003280DD1FFE79DF80410AC
:100BF0009DF803209DF8053041F20040C4F2010049
:100C0000FFF7A4FD32E09DF8070004280DD1FFE7AF
:100C10009DF804109DF803209DF8053041F6000072
:100C2000C4F20100FFF792FD1FE09DF807000528C0
:100C30000DD1FFE79DF804109DF803209DF80530C5
:100C400041F60040C4F20100FFF780FD0CE09DF882
:100C500004109DF803209DF8053042F20000C4F214
:100C60000100FFF773FDFFE7FFE7FFE7FFE7FFE79F
:100C7000FFE78AE09DF806106FF01F0000EB81008F
:100C80008DF802009DF8020002308DF801009DF8F9
:100C9000070068B9FFE79DF802109DF801209DF854
:100CA000053040F60400C4F20100FFF74FFD6BE091
:100CB0009DF8070001280DD1FFE79DF802109DF86F
:100CC00001209DF8053040F60440C4F20100FFF712
:100CD0003DFD58E09DF8070002280DD1FFE79DF883
:100CE00002109DF801209DF8053041F20400C4F285
:100CF0000100FFF72BFD45E09DF8070003280DD10B
:100D0000FFE79DF802109DF801209DF8053041F2A3
:100D10000440C4F20100FFF719FD32E09DF807001E
:100D200004280DD1FFE79DF802109DF801209DF8E1
:100D3000053041F60400C4F20100FFF707FD1FE093
:100D40009DF8070005280DD1FFE79DF802109DF8DA
:100D500001209DF8053041F60440C4F20100FFF780
:100D6000F5FC0CE09DF802109DF801209DF805307F
:100D700042F20400C4F20100FFF7E8FCFFE7FFE7DE
:100D8000FFE7FFE7FFE7FFE7FFE702B080BD0000F6
:100D900082B001908DF803108DF802209DF80200BA
:100DA00001280AD1FFE79DF80310012000FA01F2A3
:100DB000019908681043086009E09DF803100120BC
:100DC00000FA01F20199086890430860FFE702B059
:100DD0007047000080B500F001F880BD84B00020AD
:100DE0000390029041F20001C4F20201086840F44D
:100DF00080300860FFE741F20000C4F202000068A2
:100E000000F400300290039801300390FFE702994C
:100E10000020019039B9FFE70398B0F5A06018BF32
:100E200001200190FFE70198C0070028E3D1FFE708
:100E300041F20000C4F2020000688003002803D5DC
:100E4000FFE70120029002E000200290FFE70298F5
:100E5000012851D1FFE742F20001C4F20201086803
:100E600040F010000860086820F00700086008687B
:100E700040F00200086041F20401C4F20201009156
:100E80000868086008680860086840F480600860C6
:100E9000086820F47C100860086840F4E8100860D6
:100EA00041F20001C4F20201086840F0807008605D
:100EB000FFE741F20000C4F2020000688001002850
:100EC00001D4FFE7F5E741F20401C4F2020108682A
:100ED00020F003000860086840F002000860FFE7A7
:100EE00041F20400C4F20200006800F00C0008287F
:100EF00001D0FFE7F4E700E0FFE704B0704700002F
:100F000080B584B001200390FFF7FEF90020019026
:100F1000092102220292FFF717FE0198029A039B11
:100F20000A21FFF75FFC0421C4F20101086820F0E8
:100F30000400086004B080BD40F2A401C2F20001C8
:100F4000086801300860704780B541F20002C4F2C1
:100F50000202106840F00100106041F20401C4F286
:100F6000020108680023CFF6FF03184008601068EC
:100F70004FF6FF73CFF6F66318401060106820F448
:100F800080201060086820F4FE00086041F208012B
:100F9000C4F202014FF41F000860FFF71BFF4EF67A
:100FA0000851CEF200014FF00060086080BD0000E3
:100FB0001021C4F20001086820F00100086040F22E
:100FC0006801C2F200010868013008607047000043
:100FD00080B582B0FFF7D0F9FFF74CFA00F03AF88D
:100FE00001200190FFF7ACF9019B0621022200923B
:100FF0001846FFF7F7FB009A019B07211846FFF7F9
:10100000F1FBFFE701200621FFF7C6FA40B9FFE731
:1010100040F20000C2F20000052100F025F9FFE7D0
:1010200040F28E00C2F2000000F096F800F054F991
:101030000220FFF723F9E5E780B500F0F1F840F270
:101040007801C2F20001042008702520FFF754FA4D
:1010500080BD000080B582B0FFF752FF00F03EF87F
:1010600043F60C01C4F20101086840F00800086072
:10107000086840F004000860086820F480500860A8
:10108000086840F02000086043F60802C4F201023C
:10109000106840F4EA501060106840F00C001060D6
:1010A000086840F400500860252001900021FFF7F7
:1010B00057FA0198FFF720FA0198FFF737FA40F244
:1010C000A801C2F200010120087040F27801C2F2CA
:1010D00000010320087002B080BD000041F2180139
:1010E000C4F20201086840F48040086070470000C4
:1010F00083B002900191002000900090FFE70098DB
:10110000019988421AD2FFE7FFE743F60000C4F2D4
:10111000010000680006002801D4FFE7F5E7029807
:10112000007843F60401C4F201010860029801301E
:101130000290FFE7009801300090E0E7FFE743F6F8
:101140000000C4F2010000684006002801D4FFE757
:10115000F5E703B07047000081B0009040F27800DE
:10116000C2F200000078042853D1FFE740F26D007E
:10117000C2F20000007840F26E01C2F2000109786C
:1011800088420DD1FFE740F27001C2F20001002059
:10119000086040F27801C2F200010320087037E0D5
:1011A00040F26D00C2F20000007840F26E01C2F21F
:1011B0000001097888422AD0FFE740F26D00C2F2B0
:1011C0000000027840F27A01C2F20001895C009BC3
:1011D00040F27002C2F20002D2F800C003F80C1014
:1011E0001168013111600078092807D3FFE740F248
:1011F0006D01C2F200010020087007E040F26D01AD
:10120000C2F20001087801300870FFE7FFE7FFE74E
:10121000FFE740F27000C2F20000006801B07047C2
:1012200043F60400C4F20100016840F26E00C2F20D
:101230000000037840F27A02C2F20002D154007832
:10124000092807D3FFE740F26E01C2F20001002037
:10125000087007E040F26E01C2F200010878013028
:101260000870FFE77047000083B0029001910020F2
:101270008DF8030040F2A800C2F2000000780128B7
:1012800021D1FFE740F27400C2F20000006801992A
:10129000884210D2FFE7029840F27401C2F20001C6
:1012A0000B68C05C40F28402C2F20002D0540868AD
:1012B0000130086006E040F2A801C2F200010220FD
:1012C0000870FFE703E001208DF80300FFE79DF8B9
:1012D000030003B07047000040F2A800C2F2000013
:1012E0000078022838D1FFE743F60000C4F201007D
:1012F00000680006002821D5FFE740F27400C2F222
:1013000000000068D0B1FFE740F2AC01C2F200017A
:101310000A6840F28400C2F20000805C43F60402D6
:10132000C4F20102106008680130086040F27401E4
:10133000C2F200010868013808600CE040F2AC011C
:10134000C2F200010020086040F2A801C2F20001D0
:1013500001200870FFE7FFE77047000080B5FFF746
:1013600037FE002080BD0000881300080000002028
:101370000800000028010008901300080800002061
:10138000B006000044010008414243442D00000023
:04000005080000ED02
:00000001FF
