:020000040800F2
:10000000700600206D0100087501000877010008E6
:10001000790100087B0100087D0100080000000054
:100020000000000000000000000000007F01000848
:100030008101000800000000830100081909000880
:100040008701000887010008870100088701000870
:100050008701000887010008870100085502000891
:100060008701000887010008870100088701000850
:100070008701000887010008870100088701000840
:100080008701000887010008870100088701000830
:100090008701000887010008870100088701000820
:1000A0008701000887010008870100088701000810
:1000B00091090008870100088701000887010008EE
:1000C00087010008870100088701000887010008F0
:1000D00087010008B90A00088701000887010008A5
:1000E00087010008870100088701000800F002F876
:1000F00000F02CF80AA090E8000C82448344AAF196
:100100000107DA4501D100F021F8AFF2090EBAE893
:100110000F0013F0010F18BFFB1A43F0010318473B
:10012000440C0000540C000000230024002500268D
:10013000103A28BF78C1FBD8520728BF30C148BF4A
:100140000B6070471FB51FBD10B510BD00F031F832
:100150001146FFF7F7FF00F0FFFD00F04FF803B482
:10016000FFF7F2FF03BC00F057F800000948804792
:1001700009480047FEE7FEE7FEE7FEE7FEE7FEE789
:10018000FEE7FEE7FEE7FEE704480549054A064BA1
:100190007047000029090008ED00000870000020E9
:1001A0007006002070020020700200207047704727
:1001B0007047754600F02CF8AE4605006946534678
:1001C00020F00700854618B020B5FFF7DDFFBDE839
:1001D00020404FF000064FF000074FF000084FF0AE
:1001E000000BAC46ACE8C009ACE8C009ACE8C009FB
:1001F000ACE8C00921F007018D46704710B50446F0
:10020000AFF300802046BDE81040FFF7A8BF000014
:10021000004870470000002001491820ABBEFEE7EF
:10022000260002007047000081B00090FFE740F216
:100230006000C2F2000000680099884201D8FFE720
:10024000F5E740F26001C2F200010020086001B051
:100250007047000080B540F21440C4F2010000680D
:100260008007002821D5FFE7072000F01BF940F2A6
:100270001441C4F20101086840F00200086040F235
:100280006C00C2F20000007838B9FFE740F26C0160
:10029000C2F200010120087006E040F26C01C2F2D7
:1002A000000100200870FFE7FFE780BD81B08DF8F6
:1002B00003009DF80300012809D1FFE741F218016E
:1002C000C4F20201086840F01000086008E041F242
:1002D0001801C4F20201086820F010000860FFE76E
:1002E00001B0704780B502200D2100F061FB80BD98
:1002F00081B041F20401C4F20201086820F0030059
:10030000086041F21401C4F20201086820F4805030
:10031000086041F20001C4F20201086820F0807018
:100320000860086840F480300860FFE741F2000090
:10033000C4F2020000688003002801D4FFE7F5E75B
:1003400041F22C01C4F20201086820F480300860F8
:10035000086820F00F00086041F20401C4F20201B5
:100360000091086840F480300860086820F470103C
:100370000860086840F4E0100860086820F48060B5
:100380000860086820F400500860086820F0F00059
:100390000860086840F00100086041F20002C4F201
:1003A0000202106820F001001060106840F08070B8
:1003B0001060086820F070600860086820F0010094
:1003C0000860086840F002000860FFE741F204009E
:1003D000C4F2020000680007002801D4FFE7F5E737
:1003E00001B0704780B582B00020019041F21C023C
:1003F000C4F20202116841F0010111602821C4F227
:10040000000108602C22C4F200024821116024215E
:10041000C4F2000108600C21C4F20001086840F039
:10042000010008601021C4F20001086820F00100FA
:1004300008601C20009000F035F8009800F04CF89F
:10044000019820F010000190019840F00100019007
:1004500001984FF0804108601421C4F2000101208E
:10046000086002B080BD000080B584B0FFF740FF97
:100470000120FFF71BFF022001900D2102910022B5
:10048000039200F08FF801980299039A00F05AFB4A
:10049000FFF7A8FFFFE7FFF725FF0520FFF7C4FEE2
:1004A000F9E7000081B08DF803009DF9031001EB1E
:1004B000D16020F01F028A1A012101FA02F34211D1
:1004C0004EF28021CEF2000151F82200184341F88B
:1004D000220001B07047000081B08DF803009DF943
:1004E000031001EBD16020F01F028A1A012101FAEA
:1004F00002F342114EF20011CEF2000151F8220037
:10050000184341F8220001B07047000082B001900A
:100510008DF803108DF802208DF801309DF803103E
:10052000032000FA01F3019A1168194311609DF844
:10053000021000FA01F201990868904308609DF8E2
:10054000010001280AD1FFE79DF80210012000FAFE
:1005500001F2019908681043086020E09DF801004D
:1005600002280AD1FFE79DF80210022000FA01F2EA
:10057000019908681043086010E09DF80100032805
:100580000AD1FFE79DF80210032000FA01F2019959
:1005900008681043086000E0FFE7FFE7FFE702B0EC
:1005A0007047000080B582B08DF807008DF8061006
:1005B0008DF805209DF80600072800F38980FFE7E5
:1005C0009DF8060080008DF804009DF804000230BC
:1005D0008DF803009DF8070068B9FFE79DF8041047
:1005E0009DF803209DF8053040F60000C4F201009C
:1005F000FFF78CFF6BE09DF8070001280DD1FFE7A6
:100600009DF804109DF803209DF8053040F6004049
:10061000C4F20100FFF77AFF58E09DF807000228B6
:100620000DD1FFE79DF804109DF803209DF80530DB
:1006300041F20000C4F20100FFF768FF45E09DF8B9
:10064000070003280DD1FFE79DF804109DF8032053
:100650009DF8053041F20040C4F20100FFF756FF5B
:1006600032E09DF8070004280DD1FFE79DF8041043
:100670009DF803209DF8053041F60000C4F201000A
:10068000FFF744FF1FE09DF8070005280DD1FFE7A5
:100690009DF804109DF803209DF8053041F60040B8
:1006A000C4F20100FFF732FF0CE09DF804109DF842
:1006B00003209DF8053042F20000C4F20100FFF76C
:1006C00025FFFFE7FFE7FFE7FFE7FFE7FFE78AE038
:1006D0009DF806106FF01F0000EB81008DF80200FE
:1006E0009DF8020002308DF801009DF8070068B9FE
:1006F000FFE79DF802109DF801209DF8053040F6B7
:100700000400C4F20100FFF701FF6BE09DF8070051
:1007100001280DD1FFE79DF802109DF801209DF8FA
:10072000053040F60440C4F20100FFF7EFFE58E048
:100730009DF8070002280DD1FFE79DF802109DF8F3
:1007400001209DF8053041F20400C4F20100FFF7DA
:10075000DDFE45E09DF8070003280DD1FFE79DF879
:1007600002109DF801209DF8053041F20440C4F2CA
:100770000100FFF7CBFE32E09DF8070004280DD101
:10078000FFE79DF802109DF801209DF8053041F625
:100790000400C4F20100FFF7B9FE1FE09DF8070056
:1007A00005280DD1FFE79DF802109DF801209DF866
:1007B000053041F60440C4F20100FFF7A7FE0CE04B
:1007C0009DF802109DF801209DF8053042F20400CA
:1007D000C4F20100FFF79AFEFFE7FFE7FFE7FFE73C
:1007E000FFE7FFE7FFE702B080BD000080B500F043
:1007F00001F880BD84B000200390029041F2000116
:10080000C4F20201086840F480300860FFE741F25A
:100810000000C4F20200006800F400300290039867
:1008200001300390FFE702990020019039B9FFE7FA
:100830000398B0F5A06018BF01200190FFE7019870
:10084000C0070028E3D1FFE741F20000C4F2020034
:1008500000688003002803D5FFE70120029002E032
:1008600000200290FFE70298012851D1FFE742F2F1
:100870000001C4F20201086840F010000860086836
:1008800020F007000860086840F00200086041F2AC
:100890000401C4F202010091086808600868086059
:1008A000086840F480600860086820F47C100860E4
:1008B000086840F4E810086041F20001C4F2020147
:1008C000086840F080700860FFE741F20000C4F261
:1008D000020000688001002801D4FFE7F5E741F23B
:1008E0000401C4F20201086820F0030008600868EF
:1008F00040F002000860FFE741F20400C4F2020089
:10090000006800F00C00082801D0FFE7F4E700E0E1
:10091000FFE704B07047000040F26801C2F2000136
:10092000086801300860704780B541F20002C4F2E7
:100930000202106840F00100106041F20401C4F2AC
:10094000020108680023CFF6FF0318400860106812
:100950004FF6FF73CFF6F66318401060106820F46E
:1009600080201060086820F4FE00086041F2080151
:10097000C4F202014FF41F000860FFF737FF4EF684
:100980000851CEF200014FF00060086080BD000009
:100990001021C4F20001086820F00100086040F254
:1009A0006001C2F200010868013008607047000071
:1009B00081B08DF803008DF802109DF8030068B92E
:1009C000FFE79DF80210012000FA01F240F60C0149
:1009D000C4F201010868504008606BE09DF8030014
:1009E00001280DD1FFE79DF80210012000FA01F265
:1009F00040F60C41C4F2010108685040086058E01C
:100A00009DF8030002280DD1FFE79DF80210012098
:100A100000FA01F241F20C01C4F2010108685040F1
:100A2000086045E09DF8030003280DD1FFE79DF81D
:100A30000210012000FA01F241F20C41C4F201015E
:100A400008685040086032E09DF8030004280DD18A
:100A5000FFE79DF80210012000FA01F241F60C01B7
:100A6000C4F201010868504008601FE09DF80300CF
:100A700005280DD1FFE79DF80210012000FA01F2D0
:100A800041F60C41C4F201010868504008600CE0D6
:100A90009DF80210012000FA01F242F20C01C4F2AA
:100AA0000101086850400860FFE7FFE7FFE7FFE744
:100AB000FFE7FFE701B0704780B543F60400C4F2DA
:100AC0000100016840F26400C2F2000001700121DF
:100AD00000F004F82520FFF7E5FC80BD83B002900C
:100AE0000191002000900090FFE700980199884252
:100AF0001AD2FFE7FFE743F60000C4F201000068E6
:100B00000006002801D4FFE7F5E70298007843F6D5
:100B10000401C4F201010860029801300290FFE76D
:100B2000009801300090E0E7FFE743F60000C4F2D0
:100B3000010000684006002801D4FFE7F5E703B094
:100B40007047000081B08DF803008DF802108DF819
:100B500001209DF8010001287ED1FFE79DF80300E8
:100B600068B9FFE79DF80210012000FA01F240F693
:100B70000C01C4F201010868104308606BE09DF8A5
:100B8000030001280DD1FFE79DF80210012000FAB3
:100B900001F240F60C41C4F20101086810430860FC
:100BA00058E09DF8030002280DD1FFE79DF80210E0
:100BB000012000FA01F241F20C01C4F201010868BF
:100BC0001043086045E09DF8030003280DD1FFE7BE
:100BD0009DF80210012000FA01F241F20C41C4F22A
:100BE000010108681043086032E09DF80300042802
:100BF0000DD1FFE79DF80210012000FA01F241F645
:100C00000C01C4F201010868104308601FE09DF860
:100C1000030005280DD1FFE79DF80210012000FA1E
:100C200001F241F60C41C4F201010868104308606A
:100C30000CE09DF80210012000FA01F242F20C01D2
:100C4000C4F20101086810430860FFE7FFE7FFE70F
:100C5000FFE7FFE7FFE77DE09DF8030068B9FFE7E6
:100C60009DF80210012000FA01F240F60C01C4F2D6
:100C700001010868904308606BE09DF803000128BB
:100C80000DD1FFE79DF80210012000FA01F240F6B5
:100C90000C41C4F2010108689043086058E09DF8D7
:100CA000030002280DD1FFE79DF80210012000FA91
:100CB00001F241F20C01C4F201010868904308609E
:100CC00045E09DF8030003280DD1FFE79DF80210D1
:100CD000012000FA01F241F20C41C4F2010108685E
:100CE0009043086032E09DF8030004280DD1FFE72F
:100CF0009DF80210012000FA01F241F60C01C4F245
:100D000001010868904308601FE09DF80300052872
:100D10000DD1FFE79DF80210012000FA01F241F623
:100D20000C41C4F201010868904308600CE09DF892
:100D30000210012000FA01F242F20C01C4F201019A
:100D4000086890430860FFE7FFE7FFE7FFE7FFE77A
:100D5000FFE7FFE701B0704780B5FFF785FB002094
:100D600080BD0000740D0008000000207006000027
:040D7000280100084E
:04000005080000ED02
:00000001FF
