:020000040800F2
:10000000680600206D0100087501000877010008EE
:10001000790100087B0100087D0100080000000054
:100020000000000000000000000000007F01000848
:10003000810100080000000083010008850100081C
:100040008701000887010008870100088701000870
:1000500087010008870100088701000829020008BD
:100060008701000887010008870100088701000850
:100070008701000887010008870100088701000840
:100080008701000887010008870100088701000830
:100090008701000887010008870100088701000820
:1000A0008701000887010008870100088701000810
:1000B0008701000887010008870100088701000800
:1000C00087010008870100088701000887010008F0
:1000D00087010008870100088701000887010008E0
:1000E00087010008870100088701000800F002F876
:1000F00000F02CF80AA090E8000C82448344AAF196
:100100000107DA4501D100F021F8AFF2090EBAE893
:100110000F0013F0010F18BFFB1A43F0010318473B
:10012000AC040000BC0400000023002400250026CD
:10013000103A28BF78C1FBD8520728BF30C148BF4A
:100140000B6070471FB51FBD10B510BD00F031F832
:100150001146FFF7F7FF00F0DDF900F04FF803B4A8
:10016000FFF7F2FF03BC00F057F800000948804792
:1001700009480047FEE7FEE7FEE7FEE7FEE7FEE789
:10018000FEE7FEE7FEE7FEE704480549054A064BA1
:1001900070470000AD040008ED0000086800002072
:1001A000680600206802002068020020704770473F
:1001B0007047754600F02CF8AE4605006946534678
:1001C00020F00700854618B020B5FFF7DDFFBDE839
:1001D00020404FF000064FF000074FF000084FF0AE
:1001E000000BAC46ACE8C009ACE8C009ACE8C009FB
:1001F000ACE8C00921F007018D46704710B50446F0
:10020000AFF300802046BDE81040FFF7A8BF000014
:10021000004870470000002001491820ABBEFEE7EF
:10022000260002007047000040F21440C4F20100B2
:100230000078800700281BD5FFE740F26000C2F27B
:1002400000000178013101700078022807DBFFE728
:1002500040F26001C2F2000100200870FFE740F2A6
:100260001441C4F20101086840F002000860FFE791
:100270007047000081B08DF803009DF8030001284D
:1002800009D1FFE741F21801C4F20201086840F009
:100290000400086008E041F21801C4F20201086895
:1002A00020F004000860FFE701B0704781B08DF8CE
:1002B00003009DF80300012809D1FFE741F218016E
:1002C000C4F20201086840F01000086008E041F242
:1002D0001801C4F20201086820F010000860FFE76E
:1002E00001B0704780B50120FFF7C4FF40F6000160
:1002F000C4F20101086820F0F0000860086840F0CE
:100300008000086040F60C01C4F20101086840F06A
:100310000200086080BD000080B50120FFF7C6FF25
:1003200041F20401C4F20101086840F44010086081
:10033000086820F44000086080BD000080B500F02F
:1003400001F880BD84B000200390029041F20001CA
:10035000C4F20201086840F480300860FFE741F20F
:100360000000C4F20200006800F40030029003981C
:1003700001300390FFE702990020019039B9FFE7AF
:100380000398B0F5A06018BF01200190FFE7019825
:10039000C0070028E3D1FFE741F20000C4F20200E9
:1003A00000688003002803D5FFE70120029002E0E7
:1003B00000200290FFE70298012851D1FFE742F2A6
:1003C0000001C4F20201086840F0100008600868EB
:1003D00020F007000860086840F00200086041F261
:1003E0000401C4F20201009108680860086808600E
:1003F000086840F480600860086820F47C10086099
:10040000086840F4E810086041F20001C4F20201FB
:10041000086840F080700860FFE741F20000C4F215
:10042000020000688001002801D4FFE7F5E741F2EF
:100430000401C4F20201086820F0030008600868A3
:1004400040F002000860FFE741F20400C4F202003D
:10045000006800F00C00082801D0FFE7F4E700E096
:10046000FFE704B07047000082B001908DF80310E0
:100470008DF802209DF8020001280AD1FFE79DF8BF
:100480000310012000FA01F2019908681043086086
:1004900009E09DF80310012000FA01F201990868B3
:1004A00090430860FFE702B07047000080B541F25A
:1004B0000002C4F20202106840F00100106041F234
:1004C0000401C4F2020108680023CFF6FF031840BC
:1004D000086010684FF6FF73CFF6F663184010609F
:1004E000106820F480201060086820F4FE00086086
:1004F00041F20801C4F202014FF41F000860FFF747
:100500001DFF4EF60851CEF200014FF0006008606A
:1005100080BD000080B582B000200190FFF7FCFE96
:10052000FFF7E0FE41F20001C4F20201086840F06A
:100530000100086041F21801C4F20201086840F0AD
:10054000010008600821C4F20101086820F0F000F1
:10055000086040F20041C4F20101086840F0020066
:10056000086040F20841C4F20101086820F002006E
:10057000086040F20C41C4F20101086840F002003A
:1005800008604EF20011CEF20001086840F08000D1
:100590000860FFE740F26000C2F200000078012826
:1005A00009D1FFE741F20C00C4F201000D21002245
:1005B000FFF75AFF08E041F20C00C4F201000D21E0
:1005C0000122FFF751FFFFE7E4E70000DC05000828
:0C05D00000000020680600002801000860
:04000005080000ED02
:00000001FF
